:020000040800F2
:100000000000082085720008296900082B69000893
:100010002D6900082F690008316900080000000000
:10002000000000000000000000000000213C00086B
:100030003369000800000000C13C00083569000871
:10004000D572000839690008D5720008D572000819
:100050003D69000841690008D5720008D5720008A2
:10006000D5720008D5720008D5720008D572000854
:10007000D5720008D5720008D5720008D572000844
:10008000D5720008D5720008D5720008D572000834
:10009000D5720008D5720008D5720008D572000824
:1000A000D5720008D5720008D5720008D572000814
:1000B000D5720008D5720008D5720008D572000804
:1000C000D5720008D5720008D5720008D5720008F4
:1000D000D5720008D5720008D5720008D5720008E4
:1000E000D5720008D5720008D5720008D5720008D4
:1000F000D5720008D5720008D5720008D5720008C4
:10010000D5720008D5720008D5720008D5720008B3
:10011000D5720008D5720008D5720008456900083C
:10012000D5720008D5720008D5720008D572000893
:10013000D5720008D5720008D5720008D572000883
:10014000D5720008D5720008D57200085169000800
:10015000D5720008D5720008D5720008D572000863
:10016000D5720008D5720008D5720008D572000853
:10017000D5720008D5720008D57200080000000092
:10018000D57200085D69000861690008D572000831
:10019000D5720008D5720008D5720008D572000823
:1001A0000000000000000000D5720008D5720008B1
:1001B000D5720008D5720008D5720008D572000803
:1001C000D5720008D572000800000000D572000842
:1001D000D5720008D5720008D5720008D5720008E3
:1001E000D5720008D5720008D5720008D5720008D3
:0801F00000000000D5720008B8
:1002000010B5054C237833B9044B13B10448AFF350
:1002100000800123237010BD7C010020000000003D
:10022000D874000808B5034B1BB103490348AFF36A
:10023000008008BD0000000080010020D874000884
:1002400053B94AB9002908BF00281CBF4FF0FF313D
:100250004FF0FF3000F07AB9ADF1080C6DE904CE33
:1002600000F006F8DDF804E0DDE9022304B0704791
:100270002DE9F0478C460D460446089E002B51D1CF
:100280008A4217466DD9B2FA82FEBEF1000F0BD03A
:10029000CEF1200C01FA0EF520FA0CFC02FA0EF752
:1002A0004CEA050C00FA0EF44FEA174A250CBCFB89
:1002B000FAF81FFA87F90AFB18CC45EA0C4508FB47
:1002C00009F3AB420AD9ED1908F1FF3280F023811E
:1002D000AB4240F22081A8F102083D44ED1AA4B2DD
:1002E000B5FBFAF00AFB105544EA054400FB09F996
:1002F000A14509D9E41900F1FF3380F00A81A14535
:1003000040F2078102383C44A4EB090440EA08406B
:100310000021002E61D024FA0EF4002334607360B3
:10032000BDE8F0878B4207D9002E54D0002186E823
:1003300021000846BDE8F087B3FA83F1002940F0B8
:100340008E80AB4202D3824200F2FA80841A65EBBF
:1003500003050120AC46002E3FD086E81010BDE812
:10036000F08712B90127B7FBF2F7B7FA87FEBEF1A3
:10037000000F34D1EB1B3A0C1FFA87FC0121B3FBB1
:10038000F2F8250C02FB183345EA03450CFB08F391
:10039000AB4207D9ED1908F1FF3002D2AB4200F2AF
:1003A000D1808046ED1AA3B2B5FBF2F002FB1055E6
:1003B00043EA05440CFB00FCA44507D9E41900F10D
:1003C000FF3302D2A44500F2B8801846A4EB0C0417
:1003D00040EA08409DE731463046BDE8F087CEF15F
:1003E000200405FA0EF307FA0EF720FA04F83A0C87
:1003F00025FA04F448EA0308B4FBF2F14FEA184581
:1004000002FB11441FFA87FC45EA044501FB0CF38B
:10041000AB4200FA0EF409D9ED1901F1FF3080F07A
:100420008A80AB4240F2878002393D44EB1A1FFAC2
:1004300088F5B3FBF2F002FB103345EA034500FBFD
:100440000CF3AB4207D9ED1900F1FF386FD2AB4284
:100450006DD902383D44EB1A40EA01418FE7C1F102
:10046000200722FA07F88B4005FA01F448EA030353
:1004700020FA07FE4FEA134CFD404EEA040EB5FB8E
:10048000FCF94FEA1E440CFB19551FFA83F844EAA5
:10049000054509FB08F4AC4202FA01F200FA01FA40
:1004A00008D9ED1809F1FF3043D2AC4241D9A9F186
:1004B00002091D442D1B1FFA8EFEB5FBFCF00CFB40
:1004C00010554EEA054400FB08F8A04507D9E4188A
:1004D00000F1FF3529D2A04527D902381C4440EA53
:1004E0000940A4EB0804A0FB02894C45C6464D46D2
:1004F00015D312D056B1BAEB0E0364EB050404FA1F
:1005000007F7CB401F43CC40376074600021BDE843
:10051000F0871846F8E69046E0E6C245EAD2B8EB26
:10052000020E69EB03050138E4E72846D7E74046A9
:1005300091E78146BEE7014678E702383C4445E74B
:10054000084608E7A8F102083D442BE7704700BFC2
:1005500008B5032000F02CF8002006F0A9F906F0F9
:1005600041F9002008BD0000034A044B11681B78C4
:100570000B441360704700BF103F002000000020B4
:10058000014B1868704700BF103F002038B5044683
:10059000FFF7F6FF0546631C1EBF044B1B78E418EB
:1005A000FFF7EEFF401B8442FAD838BD0000002060
:1005B000074A0002D36800F4E06023F4E0631B0400
:1005C0001B0C43F0BF6343F400330343D360704715
:1005D00000ED00E0194B30B5DC68C4F30224C4F12F
:1005E0000703251D042B28BF0423062D4FF001050A
:1005F0008CBF033C002405FA03F3002803F1FF330A
:1006000001EA030101FA04F105FA04F404F1FF34EC
:1006100002EA040242EA01024FEA021205DA00F09D
:100620000F00D2B2064B1A5430BD00F16040D2B276
:1006300000F5614080F8002330BD00BF00ED00E010
:1006400014ED00E04209012300F01F0003FA00F05E
:10065000014B43F82200704700E100E00138B0F19F
:10066000807F0AD2064BF021064A5860002082F8AB
:100670002310072298601A6070470120704700BF5E
:1006800010E000E000ED00E0044B04281A680CBF05
:1006900042F0040222F004021A60704710E000E009
:1006A00003681821DAB223F47F73103A23F00303AE
:1006B000B2FBF1F20449032A895C88BF0433C165A7
:1006C0008365806D704700BF0C75000870B50446E7
:1006D000FFF756FF0546002C71D00023226884F8EE
:1006E0003430022384F83530136823F0010313609B
:1006F00021680B68D8073CD40B68324D62681D40F6
:10070000A368A0691343E268134322691343626933
:100710001343E26903431343226A1343626A042AC0
:1007200043EA050301BF266BE56A35432B43042AE0
:100730000B604B6923F0070343EA02030BD1A26A63
:10074000E56A13433DB1F8B9012A2DD001D3022A3D
:1007500001D1EA012BD44B612046FFF7A1FFE26DE6
:100760003F239340836000200123606584F8353087
:1007700070BDFFF705FF401B0528B9D920230320D2
:10078000636584F8350070BDB0F5005F13D1032AAE
:10079000E1D801A050F822F0AF0700085307000885
:1007A000AF070008A9070008B5F1C07FD3D14023E7
:1007B00001206365E5E7022AF9D9032AC8E7012089
:1007C00070BD00BF3F8010E090F83530022B03D0A1
:1007D00080234365012070470268052380F8353087
:1007E0000020136823F0010313607047164BDA688A
:1007F000920704D515498A6942F020028A61DB68B4
:10080000DB0604D5114A936943F0100393610E4B44
:10081000DA68900604D50D498A6942F008028A61B7
:10082000DB68590604D5094A936943F004039361D0
:10083000054BDA68120604D504498A6942F00202BF
:100840008A61F222DA607047003C0240143F0020C7
:1008500070477047374B1A6922F0010270B51A6170
:100860001A69354D22F002021A611A6922F0F80263
:100870001A611A6922F4004222F004021A61DC684B
:1008800014F0010418D00122DA602B78DBB2022BBD
:100890002CD0032B30D0934230D16B68013B6B607E
:1008A0006E68DEB1E868FFF7D3FFEC680134EC60F6
:1008B0002046297A00F042F81E4BDB6813F0F20F55
:1008C00026D02B78DBB2022B1AD0032B2FD0012B92
:1008D00017D14FF0FF33EC68EB6012E04FF0FF34BC
:1008E0002046EC60FFF7B4FF2E70E5E700200024FF
:1008F000FFF7AEFF2C70DFE72869F8E70024DBE79D
:100900000024FFF773FF2046FFF7A3FF00232B709F
:100910002B7803F0FF014BB9064B1A6922F0807265
:100920001A611A6922F000721A61297570BD2C696A
:10093000E7E700BF003C0240143F002039B1012925
:1009400021D002290CBF4FF400714FF440710F4BBE
:100950000B281A6988BF043022F440721A611A69A0
:10096000114319611A6922F0F8021A611A6942F0FA
:10097000020242EAC00018611A6942F480321A6128
:10098000BFF34F8F70474FF48071E0E7003C0240A7
:100990002DE9F04F0B6885B0DFF8C081019300238B
:1009A0006C4ADFF8BC914FF0010E019C0EFA03FE79
:1009B0000EEA0406B64540F0B3804C6824F01007F8
:1009C000022F16D14FEAD30A03F0070B4FF00F0C9A
:1009D00000EB8A0A4FEA8B0BDAF820500CFA0BFC7A
:1009E00025EA0C0C0D6905FA0BF545EA0C05CAF869
:1009F00020504FEA430A0325D0F800B004F0030C5E
:100A000005FA0AF5013F0CFA0AFCED43012F0BEA47
:100A1000050B4CEA0B0CC0F800C011D8876807EA38
:100A2000050BCF6807FA0AFC4CEA0B07876047689A
:100A300027EA0E0EC4F300179F4047EA0E074760EF
:100A4000C7683D408F6807FA0AF73D43C560E50077
:100A500066D5D8F8445023F0030703F0030E4FF097
:100A60000F0C45F4804507F180474FEA8E0EC8F819
:100A7000445007F59C37D8F8445005F48045039559
:100A8000039D0CFA0EF5D7F808A02AEA050C324DA2
:100A9000A8424CD005F58065A8424AD005F580658E
:100AA000A84248D005F58065A84246D005F5806586
:100AB000A84244D0484544D005F50065A84242D03C
:100AC00005F58065A84240D005F58065A8423ED076
:100AD00005F58065A84214BF0A25092505FA0EF51B
:100AE00014F4803F45EA0C05BD606FEA06071568FF
:100AF0000CBF3D40354314F4003F156055680CBFF2
:100B00003D40354314F4801F556095680CBF3D404F
:100B10003543A4029560D56854BF3D403543D56048
:100B20000133102B7FF43FAF05B0BDE8F08F0025F7
:100B3000D4E70125D2E70225D0E70325CEE7042537
:100B4000CCE70525CAE70625C8E70725C6E7082537
:100B5000C4E700BF003C01400000024000380240F2
:100B6000001402400AB1816170470904FBE72DE9D6
:100B7000F04104468AB000286BD090F8BD3303F0F2
:100B8000FF021BB980F8BC2305F082FF2546032332
:100B90006E4604F1040855F8100B84F8BD3302F0DA
:100BA000B0FA0FCD0FC60FCD0FC695E8030004F1C4
:100BB000100586E8030098E80E002068012602F080
:100BC0005FFA0021206802F0A2FA002122462346A3
:100BD000084683F83C101C33D984013183F8216026
:100BE0000F2983F823009862D8625863F1D100235B
:100BF0001F4682F8FC31013382F8FD711C320F2B45
:100C000082F8E371C2F8E871C2F8EC71C2F8F471CD
:100C1000EFD10FCD6E460FC60FCD0FC695E803007E
:100C200086E8030098E80E00206802F0B1FA01237C
:100C300084F8387084F8BD33636A012B02D12046F2
:100C400000F0B9FC206802F0C5FD00200AB0BDE844
:100C5000F0810120FAE790F8BC33012B10B504466F
:100C60000CD0012380F8BC33006802F0A7FD206897
:100C700002F041FA002084F8BC0310BD022010BD30
:100C80002DE9F04F076887B004463846D7F840A0F2
:100C900002F0DBFD0290002840F04F81206802F056
:100CA000A5FD002800F04981206802F09FFD85071E
:100CB00004D52268536903F002035361206802F0EF
:100CC00095FD10F400250CD007F530682646002568
:100CD0002068C14602F08EFD0390039B002B40F07C
:100CE0002F81206802F082FD42030BD52068264642
:100CF00002F088FD07F5106983460025BBF1000F5F
:100D000040F0A181206802F071FD002815DAD7F8C3
:100D1000043823F00103C7F8043894F8F033012BAA
:100D200040F027820021204684F8F01306F00CF8EA
:100D30002268536903F000435361206802F056FDB6
:100D400003050BD5D7F80838DE0702D5204605F095
:100D500001FF2268536903F400635361206802F0C5
:100D600045FD000114D523685A6902F000625A61FA
:100D700094F8F023002A40F000825B6D01212046A8
:100D8000C3F3830384F8F013C4F8F43305F0DCFFF5
:100D9000206802F02BFDC10435D507F500667368A5
:100DA0001021206823F00103736002F0C7F9606826
:100DB00007F510634FF67F31029A824240F0E181DD
:100DC000F36943F00113F361236B002B00F0ED8115
:100DD000D6F8843043F00B03C6F88430736C43F0CC
:100DE0000B037364D7F8003804F57072217C23F488
:100DF000FE632068C7F8003802F046FD2268536998
:100E000003F480535361206802F0F0FC82041DD586
:100E1000206802F01EFD2068C36823F47053C3608D
:100E200002F06EFA002840F0C9814FF40073226886
:100E3000E0606361D36843F41053D360204605F04B
:100E400078FE2268536903F400535361206802F06E
:100E5000CDFCC3062BD52268936923F01003936160
:100E60003E6AC6F3434306F00F09022B40F01C8292
:100E700047F6F0731E4215D04FF01C08C6F30A1651
:100E8000384608FB09483246D8F8081202F020FC20
:100E9000D8F808323344C8F80832D8F814321E445F
:100EA000C8F814622268936943F0100393612068C4
:100EB00002F09CFC070707D5204605F036FE2268A5
:100EC000536903F008035361206802F08FFCC602E7
:100ED00008D5E9B2204605F05DFE2268536903F4A7
:100EE00080135361206802F081FC800208D5E9B2CA
:100EF000204605F04BFE2268536903F4001353614A
:100F0000206802F073FC410007D5204605F046FE3C
:100F10002268536903F080435361206802F066FC45
:100F200042070AD523685D686B0702D5204605F0A5
:100F300039FE23685A6815435D6007B0BDE8F08F3D
:100F4000039BD80777D5EAB220681146049202F0D5
:100F500061FC10F0010F834639D0B54B0121049A92
:100F60009A45C9F80810216918D9012916D1D8F86D
:100F70000810090403D54FF40041C9F80810D9F846
:100F80001010D6F80402C1F31201411AC6F8141267
:100F9000D6F808120844C6F8080201E00129EED08C
:100FA000A44B9A452DD1D8F808100B0429D54FF43D
:100FB0000042C9F808202169012908D13DB9D4F8B7
:100FC000102222B904F57072206802F05DFC1BF05B
:100FD000080F24D0974B9A4518D1D8F80820100450
:100FE00003D54FF40042C9F808202269012A10D124
:100FF000D8F8082011040CD54FF40042C9F8082095
:1010000007E01146204605F07FFDD4E7884B9A455E
:10101000EBD8204605F072FD0822C9F808201BF025
:10102000100F02D01022C9F808201BF0200F02D0A8
:101030002023C9F80830039B013509F120091C362B
:101040005B08039349E61BF0010F71D0EBB22068F7
:101050001946039302F0E7FB10F0010F804622D0FF
:10106000012005F00F02D7F8343800FA02F2039994
:1010700023EA0203C7F834382369C9F80800834219
:10108000204601BFB36C726C9B18B36405F045FD3C
:101090002169012907D135B9236D23B904F570728F
:1010A000206802F0F1FB18F0080F02D00823C9F8FD
:1010B000083018F0100F02D01023C9F8083018F0CB
:1010C000400F02D04023C9F8083018F0020F02D0B8
:1010D0000223C9F8083018F0800F29D02368726DF8
:1010E0000493336DA3EB0208736C984528BF9846B0
:1010F000049B08F1030A03F510634FEA9A0A03EB15
:1011000045130593059B9B699BB2534504D9726DAA
:10111000336D934200D993B9B8F1000F08D1049B05
:101120000121D3F83428A94022EA0102C3F8342867
:1011300001354FEA5B0B1C3609F12009DEE5A3EB14
:101140000208736C039A9845049828BF9846237C3C
:1011500000931FFA88F3B16C08F1030A02F0D2F988
:10116000B36C4FEA9A0A4344B364736D43447365A6
:10117000C8E7204605F006FDDAE5204605F0EAFC62
:1011800006E69960203353F8202C22F4001243F82D
:10119000202CC3F8E811D3F8E02122F40012C3F8A0
:1011A000E021029A0132029206E6736943F02B03B2
:1011B0007361336943F00B03336113E60323E36088
:1011C0004023636100F0B2FC1B4B1C4A0344934272
:1011D000236804D8DA6842F47052DA602EE6184ABE
:1011E000184902448A4203D8DA6842F46052F4E7AC
:1011F000A0F574021449A2F510528A4203D8DA68A5
:1012000042F45052E9E7A0F183721049A2F5E74297
:101210008A4203D8DA6842F44052DEE70C4A0D49AC
:1012200002448A4218D8DA6842F43052D5E700BF47
:101230000A30544F0A31544F405327FFFF340C00FB
:10124000401E1BFF3F420F007F4F12001FD61300AE
:1012500060B6E5FE5FE316001B4A1C4902448A4261
:1012600003D8DA6842F42052B7E7194A1949024410
:101270008A4203D8DA6842F41052AEE7A0F1B7729E
:101280001549A2F558528A4203D8DA6842F400524E
:10129000A3E7124A124902448A42DA6894BF42F430
:1012A000E05242F4C05298E7062B7FF4FBAD4FF0BA
:1012B0001C08082204F57071384602F009FA08FB90
:1012C0000948C6F30A16E8E500D3CEFE3F771B00B7
:1012D000C05BB3FEBF9121001F753800E05459FE7A
:1012E000DF9C410090F8BC23012A10B504460BD0C6
:1012F000012280F8BC2384F83810006802F04EFA0E
:10130000002084F8BC0310BD022010BD70B5044657
:1013100001F00F001C2611F0800FC5B2C0B206FB11
:1013200005411DBF06FB054501263C3101F5FE7157
:1013300005BF06FB0545002685F83D6085F8FD6183
:101340008A604A780870CB7002B1C880022B04BF53
:1013500000230B7194F8BC33012B09D001232068C2
:1013600084F8BC3301F0DAFF002084F8BC0370BDC0
:10137000022070BD01F00F0311F0800FDAB210B53A
:1013800004464FF01C0000FB02411BBF00FB024261
:10139000012000FB02423C3105BF01F5FE71002037
:1013A00082F83D0082F8FD010B7094F8BC33012BEC
:1013B00009D00123206884F8BC3301F0F1FF00203C
:1013C00084F8BC0310BD022010BD38B501F00F0534
:1013D0001C2404FB050104FB050401F5FE71C4F89F
:1013E00010320023C4F80822C4F8143284F8FD3106
:1013F00084F8FC5103690068012B08BFC4F80C2273
:10140000DAB21DB901F0FEFF002038BD02F08EF8FF
:10141000FAE71C2301F00F0103FB0101B1F81402EC
:10142000704738B501F00F051C2404FB050104FBCF
:1014300005043C3123650023A2646365012384F81D
:101440003C5084F83D3003690068012B08BFE2641A
:10145000DAB21DB901F0D6FF002038BD02F066F8FF
:10146000FAE738B501F00F05436804469D422ED8CF
:1014700011F0800F4FF01C021FD002FB050302FB8E
:10148000050101223C3381F83D2001221D709A7034
:1014900094F8BC1391421CD084F8BC2319462068F0
:1014A00002F024F92DB904F57072217C206802F055
:1014B000EBF9002084F8BC0338BD02FB010302FBFA
:1014C0000101002203F5FE7381F8FD21DDE7012013
:1014D00038BD022038BD38B501F00F02436804461C
:1014E0009A4225D81C2311F0800F4FF0000503FB12
:1014F00002010FBF002003FB020301203C3105BFA6
:1015000001F5FE7103FB024383F83D0083F8FD0102
:101510008D700A7094F8BC33012B0BD00123206826
:1015200084F8BC3302F00FF984F8BC53284638BD68
:10153000012038BD022038BD90F8BC33012B10B516
:10154000044611D0012380F8BC330B0608D501F006
:101550000F01006801F0F2FD002084F8BC0310BD0B
:10156000006801F0FDFDF7E7022010BD70B50468CA
:10157000636A21B943EA0243A362002070BDA06AF6
:101580004D1E03EB10430020461CC0B2854206D816
:101590003F3143EA024304EB81046360EDE74030EE
:1015A00004EB8000406803EB10433046ECE703682F
:1015B000002059627047012102680346C0F8F81301
:1015C000002083F8F003936943F000639361536D47
:1015D00043F0805343F003035365704770470000A6
:1015E00010B5054C6369DB0304D5FFF7F7FF4FF433
:1015F0008033636110BD00BF003C0140194B37B51B
:101600001A6C194C42F080521A641B6C03F0805320
:101610000193019B236843F480332360FEF7B0FFFE
:1016200005466368DA030CD5236843F4003323606E
:10163000FEF7A6FF0C4C054663689B030AD5002005
:1016400006E0FEF79DFF401BB0F57A7FE9D9032045
:1016500003B030BDFEF794FF401BB0F57A7FEBD9A5
:10166000F5E700BF00380240007000402DE9F3416B
:10167000044618B9012002B0BDE8F0810368D8071C
:1016800010D4236899075ED42368190700F1A3805A
:1016900023685A0700F1C480A269002A40F02E8115
:1016A0000020E8E7934B9A6802F00C02042A07D066
:1016B0009A6802F00C02082A0AD15B685A0207D520
:1016C0008C4B1B689B03DCD56368002BD9D1D1E719
:1016D0006368884DB3F5803F11D12B6843F48033A4
:1016E0002B60FEF74DFF834D06462B689F03C8D441
:1016F000FEF746FF801B6428F7D90320BBE79BB9A0
:101700002B6823F480332B602B6823F480232B6019
:10171000FEF736FF06462B689803B2D5FEF730FF7A
:10172000801B6428F7D9E8E7B3F5A02F2B6803D115
:1017300043F480232B60D0E723F480332B602B68A5
:1017400023F48023CCE76B4B9A6812F00C0F07D080
:101750009A6802F00C02082A11D15B6859020ED473
:10176000644B1A68920702D5E268012A82D11A688E
:10177000216922F0F80242EAC1021A6084E7E368B4
:101780005C4DBBB12B6843F001032B60FEF7F8FE04
:1017900006462B689F0707D52B68226923F0F803BC
:1017A00043EAC2032B606FE7FEF7EAFE801B0228C4
:1017B000EFD9A2E72B6823F001032B60FEF7E0FED0
:1017C00006462B6898077FF55FAFFEF7D9FE801BB2
:1017D0000228F6D991E76369464D83B16B6F43F0F8
:1017E00001036B67FEF7CCFE06466B6F9B073FF568
:1017F0004FAFFEF7C5FE801B0228F6D97DE76B6F61
:1018000023F001036B67FEF7BBFE06466B6F9F0775
:101810007FF53EAFFEF7B4FE801B0228F6D96CE7D9
:10182000344B1A6CD00027D41A6C012642F0805237
:101830001A641B6C03F080530193019B2E4D2B689F
:10184000D9051BD5A3682B4D012B27D12B6F43F056
:1018500001032B6741F28835FEF792FE254F804643
:101860003B6F9B073FD5002E3FF416AF214A136C08
:1018700023F0805313640FE70026DFE72B6843F45F
:1018800080732B60FEF77CFE07462B68DA05D9D4FF
:10189000FEF776FEC01B6428F7D92EE7ABB92B6F95
:1018A00041F2883823F001032B672B6F23F00403E8
:1018B0002B67FEF765FE07462B6F9807D3D5FEF71B
:1018C0005FFEC01B4045F7D917E7052B2B6F03D1EF
:1018D00043F004032B67B9E723F001032B672B6F59
:1018E00023F00403B5E7FEF74BFEA0EB0800A84287
:1018F000B6D902E70038024000700040244DAB68C2
:1019000003F00C03082B3FF4B5AE2B68022A23F03A
:1019100080732B602FD1FEF733FE06462B689901AA
:1019200023D4226AE3691343626A43EA8213E26AB8
:1019300043EA0263226B43EA0273A26A144C520820
:10194000013A43EA02436B602B6843F080732B60DB
:10195000FEF716FE054623689A013FF5A1AEFEF795
:101960000FFE401B0228F6D9C7E6FEF709FE801BD2
:101970000228D3D9C1E6FEF703FE04462B689B017B
:101980007FF58EAEFEF7FCFD001B0228F6D9B4E60B
:1019900000380240134908B58B6803F00C03042B90
:1019A00003D0082B03D0104808BD104808BD4A6872
:1019B0004B68496802F03F0213F48003C1F38811B9
:1019C0001ABF0A4800230848A1FB0001FEF738FCB3
:1019D000044B5B68C3F3014301335B00B0FBF3F0DE
:1019E00008BD00BF003802400024F40000366E013C
:1019F0002DE9F0410D46044610B90120BDE8F08103
:101A0000464A136803F00F038B4228D321688F07DF
:101A100030D4C80743D4414A136803F00F039D42F2
:101A200067D32268510770D4130707D53C4A216950
:101A3000936823F4604343EAC1039360FFF7AAFF6E
:101A4000374B384A9B68C3F30313D35CD840364BFB
:101A50001860002004F02CFF0020BDE8F08113681E
:101A600023F00F030B431360136803F00F03994235
:101A7000C3D1CBE711F0040F294B03D09A6842F48D
:101A8000E0529A600E0703D59A6842F460429A6069
:101A90009A68A06822F0F00202439A60B9E7616890
:101AA0001F4B01291A681CD112F4003FA5D09A6877
:101AB00041F288381A4E22F003020A439A60FEF778
:101AC0005FFD0746B368626803F00C03B3EB820F57
:101AD000A1D0FEF755FDC01B4045F3D90320BDE85A
:101AE000F081022902D112F0007FDFE712F0020F2D
:101AF000DCE7136823F00F032B431360136803F034
:101B00000F039D427FF479AF8BE70549E0688B684E
:101B100023F4E05303438B6086E700BF003C0240A0
:101B200000380240A8750008B0000020014B18687A
:101B3000704700BFB0000020044B054A9B68C3F308
:101B40008223D35C034A1068D840704700380240B3
:101B5000B8750008B0000020044B054A9B68C3F329
:101B60004233D35C034A1068D840704700380240C3
:101B7000B8750008B00000200F230360294B1A68D5
:101B8000520342D54FF4A02242601B6813F00103B8
:101B900018BF0123C360234B1A68C2F3C402026159
:101BA0001A6F510738D5052282605B6F13F001036D
:101BB00018BF012343611B4B1A68D2014CBF02229C
:101BC000012282615A6802F48002C2615A6802F0FE
:101BD0003F0202625A68C2F3881242625A6802F4F3
:101BE000403202F58032D20B82625A68C2F303623D
:101BF000C2624FF0E0425B6892FAA2F2B2FA82F25D
:101C000003F0E043D340036370471A6812F4803254
:101C100018BF4FF48032B7E71A6F12F0010218BFF5
:101C20000122C1E7003802400F2303600B4B9A6882
:101C300002F0030242609A6802F0F00282609A6841
:101C400002F4E052C2609B68DB0803F4E0530361D6
:101C5000034B1B6803F00F030B6070470038024012
:101C6000003C02402DE9F7430268044612F00106E9
:101C70000BD0B84B996821F400019960466B9968C4
:101C80003143B6FA86F67609996012F4002512D02F
:101C9000B049E56BD1F88C30B5F5801F23F44013C3
:101CA00008BF012643EA050316BFB5FA85F50025EE
:101CB0006D09C1F88C30D70210D5A648216CD0F838
:101CC0008C30B1F5800F23F4400343EA0103C0F8E0
:101CD0008C3000F08981002908BF012512F0807F37
:101CE00018BF0126900631D59A4B9B4F1A6C42F0D3
:101CF00080521A641B6C03F080530193019B3B6874
:101D000043F480733B60FEF73BFC80463B68D9059B
:101D100040F16C818F4F3B6F13F4407340F0718141
:101D2000236B03F44072B2F5407F8A4A40F08F8102
:101D3000916823F0704021F4F81120F440700143C1
:101D40009160C3F30B03116F0B4313672368DF0626
:101D50000CD5804AD2F88C1021F08071C2F88C101A
:101D6000D2F88C10A06B0143C2F88C10580408D52F
:101D70007849606ED1F8902022F440320243C1F8D5
:101D80009020190408D57349A06ED1F8902022F450
:101D900040220243C1F89020DA0308D56D49E06E75
:101DA000D1F8902022F440120243C1F890209F0302
:101DB00008D56849206FD1F8902022F440020243F0
:101DC000C1F89020580608D56249606CD1F890207F
:101DD00022F003020243C1F89020190608D55D499C
:101DE000A06CD1F8902022F00C020243C1F89020A0
:101DF000DA0508D55749E06CD1F8902022F030027E
:101E00000243C1F890209F0508D55249206DD1F8B2
:101E1000902022F0C0020243C1F89020580508D556
:101E20004C49606DD1F8902022F440720243C1F811
:101E30009020190508D54749A06DD1F8902022F4CB
:101E400040620243C1F89020DA0408D54149E06DB0
:101E5000D1F8902022F440520243C1F890209F0410
:101E600008D53C49206ED1F8902022F4404202432C
:101E7000C1F89020580208D53649A06FD1F89020BB
:101E800022F080620243C1F8902099020CD53148BB
:101E9000E16FD0F89020B1F1006F22F0006208BF2E
:101EA00001250A43C0F890205A0308D52949606FDC
:101EB000D1F8902022F040720243C1F890201F0216
:101EC00009D52449D4F88000D1F8902022F080521E
:101ED0000243C1F89020580109D51E49D4F8840066
:101EE000D1F8902022F000520243C1F8902019014D
:101EF00009D51849D4F88800D1F88C2022F0007256
:101F00000243C1F88C20DA0009D51249D4F88C00BC
:101F1000D1F88C2022F080620243C1F88C20012E7F
:101F200000F09980B3F1007F00F09580012D59D128
:101F3000084D2B6823F080532B60FEF721FB0646EB
:101F40002B689F0000F10B8121680D0306D5E36B20
:101F500043B103E00038024000700040C8021DD5C4
:101F6000236CDBB9854AD2F88830D2F8880003F4B4
:101F7000403300F0E0400343606943EA8013A06906
:101F800043EA0063C2F88830D2F88C30A06A23F4A8
:101F9000F853013843EA0023C2F88C308A0215D581
:101FA000E36FB3F1006F11D1744AD2F88830D2F8E0
:101FB000881003F0706301F0E0410B43616943EA6C
:101FC0008113216A43EA0143C2F888306B4C2368CD
:101FD00043F080532360FEF7D3FA054623689B0045
:101FE00040F1C480002009E0012677E6FEF7C8FA38
:101FF000A0EB080064287FF689AE032003B0BDE89B
:10200000F083226B02F4407293423FF489AE3B6F3F
:102010003A6F23F4407342F480323A673A6F22F405
:1020200080323A673B673B6FDA077FF579AEFEF7A0
:10203000A7FA41F2883980463B6F9B073FF570AEA7
:10204000FEF79EFAA0EB08004845F5D9D5E7916860
:1020500021F4F81174E6494E336823F0806333604D
:10206000FEF78EFA074633681B0172D42268D70741
:1020700012D5636B83B9D6F88430D6F8841003F494
:10208000403301F070610B43616843EA8113A1683A
:1020900043EA0173C6F88430160303D5E36BB3F546
:1020A000801F05D0D0021ED5236CB3F5800F1AD146
:1020B0003249D1F88430D1F8840003F4403300F081
:1020C000E0400343606843EA8013E06843EA00634A
:1020D000C1F88430D1F88C00636A20F01F00013B06
:1020E0000343C1F88C30D10111D52449D1F8843093
:1020F000D1F8840003F0706300F0E04003436068AF
:1021000043EA8013206943EA0043C1F88430920116
:102110000DD5236962681B0443EA8213E26843EA2F
:102120000263A26843EA0273144AC2F88430134E71
:10213000336843F080633360FEF722FA0746336862
:102140001B013FF5F3AEFEF71BFAC01B6428F6D95E
:1021500053E7FEF715FAC01B642884D94DE7FEF754
:102160000FFA801B64287FF6EBAE46E7FEF708FA0D
:10217000401B64287FF632AF3FE700BF00380240C3
:1021800003685A6822F0E0025A604268B2F5827F22
:102190000AD18268B2F5004F02D0B2F5806F03D148
:1021A0001A6822F040021A60826AB2F5005F09D113
:1021B0001A6822F400521204120C1A601A6842F4CF
:1021C00000521A60012380F85D30002380F85C30F3
:1021D0000320704770B505460C4616462B68986874
:1021E00010F0800000D170BD621CF8D024B92846E0
:1021F000BDE87040FFF7C4BFFEF7C2F9801B844200
:10220000ECD8F4E7F7B506460C4615461F4631688C
:10221000886820400ED0B4F5C06F05D10A7BD2B2D9
:102220008DF807209DF807306B1CF1D025B930469A
:10223000FFF7A6FF03B0F0BDFEF7A2F9C01B854271
:10224000E5D8F4E770B513460D4616460A464FF436
:10225000C0510446FFF7D6FF28B1236E032043F098
:10226000200323660FE0324629462046FFF7B2FFDF
:102270000028F2D133462A464FF4C0612046FFF7CA
:10228000C1FF0028E9D170BD70B5044600284ED0CA
:102290000023836290F85D3003F0FF021BB980F8E1
:1022A0005C2004F061FA02232168E26884F85D3062
:1022B0000B68B2F5E06F23F040030B604FF00003B2
:1022C00032D91846B2F5706F18BFA362236B2BB9D1
:1022D000B2F5E06F8CBF022301232363A668636815
:1022E000A56933432669334366693343E66933435B
:1022F000266A3343A66A334305F400762D0C334334
:1023000005F004050B60636A1A43636B1A432A43A2
:10231000024300204A60CB6923F40063CB610123B0
:10232000206684F85D3070BD4FF48050CCE701200A
:1023300070BD2DE9F3411E4690F85C3004460D4611
:10234000012B904600F09780012380F85C30FEF767
:1023500017F9074694F85D00C0B2012840F0898063
:10236000002D60D0B8F1000F5DD00323A563A4F861
:102370003C8084F85D30002323662364A4F83E800B
:10238000A4F84430A4F846302365E364A368B3F5A9
:10239000004F236803D11A6842F480421A601A6819
:1023A000520603D41A6842F040021A60E368B3F59B
:1023B000E06F1DD8E38F9BB2F3B123689A68920750
:1023C0004AD5E28F92B2012A3ED935F8022BDA6063
:1023D000E38F023B9BB2E387ECE723689A689007A0
:1023E0001FD535F8022BDA60E38F013B9BB2E38700
:1023F000E38F9BB2002BF0D13A4631462046FFF7DF
:1024000021FF002832D1A36833B901932368DA6829
:1024100001929B680193019B206E003018BF012040
:1024200001E04EB90320012384F85D30002384F8D5
:102430005C3002B0BDE8F081711CD9D0FEF7A0F885
:10244000C01B8642D4D8EDE72A7801351A73E38F92
:10245000013B9BB2E387ADE7002EE3D0731CA9D00C
:10246000FEF78EF8C01B8642A4D8DBE72023236644
:10247000C9E70220D7E70220DBE72DE9F8431F4632
:1024800090F85C3004460D46012B1646DDF820809E
:1024900000F01181012380F85C30FEF771F894F8A8
:1024A0005D3081466168DBB2012B0AD0B1F5827FD5
:1024B00040F0FD80A268002A40F0F980042B40F033
:1024C000F680002D00F0F580002E00F0F280002F45
:1024D00000F0EF8094F85D30042B02D0052384F8DF
:1024E0005D30E06800232664B0F5E06F2366E364A6
:1024F000A4F846702365A4F84470A563E787A7870E
:10250000236804D8B4F8462092B2012A2ED95A681A
:1025100022F480525A601A68570603D41A6842F0AF
:1025200040021A60B0F5E06F58D919B1E28F92B24B
:10253000012A06D135F8022BDA60E38F013B9BB20A
:10254000E3870127E38F9BB2A3B9B4F846309BB26F
:1025500083B94A4641462046FFF774FE002840F002
:10256000A380206E003018BF01202FE05A6842F48B
:102570008052CFE777B1E38F9BB25BB123689A6853
:10258000920707D535F8022B0027DA60E38F013B6D
:102590009BB2E387B4F846309BB26BB123689A686C
:1025A000D00709D5DB68012726F8023BB4F846308E
:1025B000013B9BB2A4F84630B8F1FF3FC2D0FDF713
:1025C000DFFFA0EB09008045BCD80320012384F87D
:1025D0005D30002384F85C30BDE8F88319B1E28FE8
:1025E00092B2012A06D115F8012B1A73E38F013B31
:1025F0009BB2E3870127E38F9BB223B9B4F846303F
:102600009BB2002BA5D097B1E38F9BB27BB123681F
:102610009A6891070BD5E28F92B2012A31D935F829
:10262000022BDA60E38F023B9BB2E3870027B4F80A
:1026300046309BB2DBB123689A68D20717D5B4F84D
:10264000462092B2012A24D9DA6826F8022BB4F87F
:102650004620023A92B2A4F84620B4F8462092B23C
:10266000012A03D85A6842F480525A600127B8F10F
:10267000FF3FC0D0FDF784FFA0EB09008045BAD82A
:10268000A3E72A7801351A73E38F013B9BB2E387F6
:10269000CCE71B7B013606F8013CB4F84630013B21
:1026A0009BB2A4F84630E1E72023236659E70220D5
:1026B0008CE701208AE70220BDE8F88370470368B1
:1026C0000020DA6842F00102DA601A6842F0010282
:1026D0001A607047704770477047704703681A69FF
:1026E000910710B504460FD5DA6892070CD56FF044
:1026F00002021A6101229B690277990700F0858026
:10270000FFF7E9FF0023237723681A69520710D5E2
:10271000DA6850070DD56FF0040220461A610222D4
:102720009B69227713F4407F75D0FFF7D4FF002315
:10273000237723681A6911070FD5DA6812070CD5B9
:102740006FF0080220461A610422DB6922779B079A
:1027500067D0FFF7C0FF0023237723681A69D006EC
:1027600010D5DA68D1060DD56FF0100220461A6137
:102770000822DB69227713F4407F58D0FFF7ABFFC4
:102780000023237723681A69D20708D5DA68D007AF
:1027900005D56FF0010220461A6103F0ADFF2368F2
:1027A0001A69110608D5DA68120605D56FF080029D
:1027B00020461A6100F0C5F823681A69D00508D5CB
:1027C000DA68110605D56FF0800220461A6100F024
:1027D000B8F823681A69520608D5DA68500605D594
:1027E0006FF0400220461A61FFF777FF23681A69ED
:1027F000910622D5DA6892061FD56FF02002204696
:102800001A61BDE8104000F09BB8FFF763FF204657
:10281000FFF762FF76E7FFF75DFF2046FFF75CFFFB
:1028200085E7FFF757FF2046FFF756FF93E7FFF7CF
:1028300051FF2046FFF750FFA2E710BD304A036862
:10284000904212D0B0F1804F0FD0A2F57C4290425E
:102850000BD002F58062904207D002F58062904270
:1028600003D002F5784290421DD14A6823F07003EC
:102870001343234A904204D123F44073CA6813439C
:1028800028E0B0F1804FF7D01E4A9042F4D002F514
:1028900080629042F0D002F580629042ECD002F566
:1028A00078429042E8D0184A9042E5D002F5806222
:1028B0009042E1D002F580629042DDD0A2F59832DC
:1028C0009042D9D002F580629042D5D002F5806264
:1028D0009042D1D04A6923F08003134303608B6890
:1028E000C3620B688362064B984206D003F580638F
:1028F000984202D00123436170470B690363F9E7F3
:1029000000000140000400400040014010B50446B2
:10291000A0B190F83D3003F0FF021BB980F83C20D5
:10292000FFF7CCFE02232068211D84F83D30FFF71D
:1029300085FF0123002084F83D3010BD012010BD2B
:102940007047704703681A6822F490721A609A6898
:1029500022F001029A60202380F86A30704790F8D4
:102960006930202B1AD1B9B1B2B190F86830012B7F
:1029700014D0A0F852200023C164A0F850202122D6
:102980000168C36680F869200A6880F868301846D4
:1029900042F080020A6070470120704702207047B1
:1029A00090F86A30202B3DD1002939D0002A37D049
:1029B00090F86830012B35D001234165A0F85820EC
:1029C00080F868308368A0F85A20B3F5805F19D189
:1029D0000369ABB940F2FF13A0F85C300023222258
:1029E000C36680F86A20026880F8683018469168EB
:1029F00041F001019160116841F4907111607047DC
:102A0000FF23E9E723B90369002BF9D07F23E3E72C
:102A1000B3F1805FE2D10369002BF7D03F23DBE7FE
:102A200001207047022070472DE9F041069D0446C1
:102A30000F46164698462168CA6937EA02030CBF5A
:102A400001220022B24202D00020BDE8F0816B1CBE
:102A5000F2D09DB9236803201A6822F4D0721A605C
:102A60009A6822F001029A60202384F8693084F881
:102A70006A30002384F86830BDE8F081FDF780FDFE
:102A8000A0EB08008542D6D8E4E790F86A300268E7
:102A9000222B10B52AD18368B0F85C10B3F5805FA3
:102AA000436D1DD10469DCB9526A114023F8021B41
:102AB0004365B0F85A40013CA4B2A0F85A406CB942
:102AC00003681A6822F490721A609A6822F0010270
:102AD0009A60202380F86A3004F088FB002010BD43
:102AE000526A5C1C114044651970E2E79369022048
:102AF00043F00803936110BD704700000368DA6972
:102B0000196870B5160704469D6807D1950663D508
:102B10008E0661D5BDE87040FFF7B7BF15F0010024
:102B200002D111F4907F57D0D50707D5CE0505D532
:102B300001251D62E56E45F00105E566950706D5A0
:102B400028B102251D62E56E45F00405E5665607CD
:102B500006D528B104251D62E56E45F00205E5663F
:102B6000150707D58E0600D420B108201862E36E41
:102B70000343E366E36E002B6AD0950604D588060E
:102B800002D52046FFF781FFE36E2046190704D4E3
:102B900023689D6815F040051AD0FFF7D3FE23681F
:102BA0009A68520610D59A68606E22F040029A60C8
:102BB00050B1284B0365FDF707FE002848D0606E32
:102BC000BDE87040036D18472046FFF795FF70BDC4
:102BD000FFF792FFE56670BD16062BD50D0629D5C9
:102BE00094F86920212A33D1B4F8522092B242B924
:102BF0001A6822F080021A601A6842F040021A60D5
:102C000070BDA268B2F5805FE26C0ED1216961B936
:102C100032F8021BC1F308019962E264B4F8523041
:102C2000013B9BB2A4F8523070BD511CE164127894
:102C30009A62F3E750060BD54A0609D51A68204672
:102C400022F040021A60202384F8693004F098FAD8
:102C500070BD00BF592C000808B5806B0023A0F898
:102C60005A30A0F85230FFF747FF08BD38B5044688
:102C70000568C3692169A26828680A4361690A4333
:102C800093491A430140206A0A43E1682A606A684E
:102C900022F440520A436A60A269A968024321F4FF
:102CA00030610A43AA608B4A954219D102F59432E9
:102CB0008949D2F8902002F00302B3F5004F8A5CF4
:102CC00040F0B380082A00F2AD80DFE812F0260061
:102CD0007B00E900AB00F500AB00AB00AB00FB00F4
:102CE0007E4A954207D102F5FA327D49D2F890200A
:102CF00002F00C02E1E77B4A95422BD102F5F83253
:102D0000D2F8902002F03002102A00F0D28016D8BB
:102D1000DAB9B3F5004F40F09F80FEF70DFF616810
:102D20004A0802EB4003B3FBF1F39BB2002023F00F
:102D30000F02C3F3420321681343CB6038BD202A3E
:102D400000F0AB80302A00F0BA80B3F5004F69D0B4
:102D5000012038BD644A95420ED102F5F632D2F810
:102D6000902002F0C002402A00F0A380D0D9802A2F
:102D700000F09380C02AE6E75C4A954210D102F544
:102D8000F432D2F8902002F44072B2F5807F00F065
:102D90009080BDD9B2F5007F7FD0B2F5407FD2E7F9
:102DA000534A954217D102F59232D2F8902002F49C
:102DB0004062B2F5806F7CD007D8002AC5D1B3F548
:102DC000004F54D1FEF7C8FEA9E7B2F5006F64D0FA
:102DD000B2F5406FB7E7474A95420FD102F5E032AE
:102DE000D2F8902002F44052B2F5805F61D08FD9C2
:102DF000B2F5005F51D0B2F5405FA4E73E4A95427C
:102E0000A3D102F5DE32D2F8902002F44042B2F5AE
:102E1000804F4ED07FF67CAFB2F5004F3DD0B2F57B
:102E2000404F90E70120002381E7082A90D801A3B2
:102E300053F822F0592E00086F2E0008752E000856
:102E4000512D00088B2E0008512D0008512D00082F
:102E5000512D0008912E0008FEF76EFE636800EB0E
:102E60005300B0FBF3F080B2E860002038BDFEF7FD
:102E700073FEF3E76268530803F5740303F5105318
:102E8000B3FBF2F39BB2EB60EFE7FEF783FDE5E700
:102E90006268530803F50043F2E7B3F5004FE9D148
:102EA0006068430803F1F47303F59043B3FBF0F358
:102EB0003BE7B3F5004FE8D1FEF76CFD2FE7B3F524
:102EC000004FE5D16068430803F58033EEE700BFAB
:102ED000F369FFEF00100140147500080044004042
:102EE0001875000800480040004C004000500040A9
:102EF0000014014000780040007C0040436ADA077B
:102F000010B506D50168846A4A6822F4003222436B
:102F10004A609C0706D50168C46A4A6822F4803278
:102F200022434A60590706D50168046B4A6822F4B7
:102F3000802222434A601A0706D50168446B4A681A
:102F400022F4004222434A60DC0606D50168846B05
:102F50008A6822F4805222438A60990606D5016865
:102F6000C46B8A6822F4005222438A605A0610D544
:102F70000168046C4A68B4F5801F22F4801242EAAA
:102F800004024A6005D14A68446C22F4C00222431C
:102F90004A601B0606D50268816C536823F400233F
:102FA0000B43536010BD37B500250446C566FDF7D9
:102FB000E7FA226803461268120709D4202300208A
:102FC00084F8693084F8680084F86A3003B030BD52
:102FD0006FF07E424FF40011204600922A46FFF720
:102FE00023FD0028EAD00320F0E710B5044660B3C3
:102FF00090F8693003F0FF021BB980F8682003F0F5
:10300000FDFC22682423204684F86930136823F0ED
:1030100001031360FFF72AFE012816D0636A13B17B
:103020002046FFF76BFF236820465A6822F490423F
:103030005A609A6822F02A029A601A6842F00102E5
:10304000BDE810401A60FFF7AEBF012010BD0000C0
:103050000A4B013B01D1032070470269002AF8DACC
:103060000369064A43F001030361013AF3D003699F
:1030700013F00103F9D11846704700BF410D03005A
:1030800084B038B505AD044685E80E000A9B012BD7
:1030900027D1836B23F480338363C36823F48403D1
:1030A00023F04003C360C36823F44013C360119B43
:1030B000012B03D1C36843F48013C3602046FFF79C
:1030C000C7FF089B012B07D1A36843F00603A36049
:1030D000A36843F02003A3600020BDE8384004B09B
:1030E0007047C36843F04003C360FFF7B1FF4FF47C
:1030F0008033A363E5E7836843F001038360002026
:103100007047836823F0010383600020704708B58F
:10311000C368012923F0C043C36008D1C36843F0EA
:103120000053C3603220FDF731FA002008BD19B901
:10313000C36843F08043F4E7012008BD8901074AD2
:1031400041F020010161013A05D0036913F0200329
:10315000F9D1184670470320704700BF410D0300A6
:103160001023064A0361013A05D0036913F01003E6
:10317000F9D1184670470320704700BF410D030086
:10318000D0F800381943C0F800180020704700003C
:1031900084B02DE9F843044609A8884680E80E006B
:1031A00000230B9A0C9F0E991D46139E03F14000BD
:1031B000013304EB80000F2B4560F7D1A36B43F480
:1031C0000013A3635EB9A36B23F40013A363236806
:1031D00043F040032360236843F08003236000230F
:1031E000012904F50065C4F8003ED4F80038C4F89D
:1031F000003858D1002A54D100212046FFF7C0FFE3
:1032000010212046FFF79AFF2046FFF7A9FF002371
:1032100004F510624FF0904019464FF0006E4FF6E3
:103220007F3C2B616B61EB61434540D1002104F58C
:1032300030624FF0904E4FF0006C08464FF67F38EA
:103240008B4246D12B69012F23F480732B6107D168
:10325000294B2B632B6B43F4803343F003032B6325
:103260000023A3616FF0804363611FB9A36943F03A
:103270001003A361A269214B1343A3610F9B1BB1F0
:10328000A36943F00803A361012E05D1A36943F0AC
:10329000804343F00403A3610020BDE8F84304B079
:1032A00070470121A9E70329A4D00321A5E7D2F89B
:1032B0000090B9F1000F0ADA3BB9C2F800E01161E1
:1032C0000133C2F808C02032AEE71060F7E71160A2
:1032D000F5E7D2F80090B9F1000F0BDA39B9C2F86E
:1032E00000C010610131C2F808802032A8E7C2F89E
:1032F00000E0F6E71060F4E70001800000383C8051
:10330000D0F8083813F0060007D09B0704D404282F
:1033100014BF0020022070470320704770B54A7820
:1033200000F500630C78012ADE6904F00F051BD15B
:10333000AA4000EB44103243DA61D0F800391A0495
:1033400010D48B68C978C3F30A03D0F8002943F07E
:10335000805343F4004343EA814343EA84531343D5
:10336000C0F80039002070BD4FF4803200EB4410EB
:10337000AA403243DA61D0F8003B1B04F2D48B68D8
:10338000C978C3F30A03D0F8002B43F0805343F409
:10339000004343EA81431343C0F8003BE2E70000E7
:1033A00030B54B7800F500620C78012BD16B04F03E
:1033B0000F0510D1AB4000EB4410DB431940D16343
:1033C000D1690B40D3610D4BD0F800291340C0F8F0
:1033D0000039002030BD4FF4803300EB4410AB4087
:1033E000DB431940D163D1690B40D361044BD0F862
:1033F000002B1340C0F8003BEBE700BF007833EC34
:103400000078F3EFF0B54B780C78012B4E694FF054
:1034100020033B4F4FD113FB040326BBD3F81059B5
:10342000012A25F0FF5525F4C015C3F81059D3F82B
:10343000105945F40025C3F81059D3F8105907EA7C
:103440000507C3F8107904D100EB44130A69C3F8E7
:10345000142900EB4410D0F8002942F00442C0F8CF
:1034600000290020F0BD03F510631D692F401F6186
:103470001D6925F0FF5525F4C0151D618D68AE420C
:1034800088BF4D61012A1D694E6945F400251D6103
:10349000C6F312051F6945EA07051D61D4D0002E49
:1034A000D7D004F00F050123D0F83418AB400B43FC
:1034B000C0F83438CDE713FB040000F530631C6915
:1034C00027401F611C6924F0FF5424F4C0141C61C0
:1034D0008C6806B14C611D69C4F31204012A45F4DD
:1034E00000251D611D6944EA05041C6101D1CA68FB
:1034F0005A61D0F8003B43F00443C0F8003BB0E70A
:103500000000F8FF10B59DF808404CB9033300EBFC
:10351000023023F0030300F580500B44994201D19F
:10352000002010BD51F8042B0260F7E7F7B54B7887
:1035300020240E78012B644F4B6914FB06047BD1C9
:10354000002B3ED104F51065D4F8104924F0FF5447
:1035500024F4C0142C612C6944F400242C612C69DF
:1035600027402F61012A56D100EB46140D69C4F89B
:103570001459CF78012F10D1D0F8084814F4807F67
:103580004FF0200414FB0604D4F800590CBF45F09A
:10359000005545F08055C4F8005900EB4614012F42
:1035A000D4F8005945F00445C4F8005906D10C7808
:1035B0009BB200922246C968FFF7A4FF002003B027
:1035C000F0BDD4F8105904F510642F402761256927
:1035D0008F6825F0FF5525F4C0152561DD19D4F855
:1035E00010E0013DB5FBF7F7384D05EAC74545EA60
:1035F0000E052561C3F3120527693D432561CD788A
:10360000012D5ED1256925F0C0452561256945F06C
:1036100000552561A6E7CC78012CAAD0002BA8D0B4
:103620000C78D0F834E804F00F050124AC4044EAEB
:103630000E04C0F834489CE704F5306635692F4025
:103640003761356925F0FF5525F4C01535618D6862
:103650001BBB3369C5F312051D433561336943F460
:1036600000233361012A01D1CB687361CB78012B30
:103670000CD1D0F8083813F4807FD4F8003B0CBF8D
:1036800043F0005343F08053C4F8003BD4F8003BB0
:1036900043F00443C4F8003B90E72B440B4FD6F8AB
:1036A00010E0013BB3FBF5F307EAC3479BB247EADF
:1036B0000E075D433761C5F3120537693D43356138
:1036C000D0E7012AAAD14FE70000F8FF0000F81F59
:1036D000033200F5805022F003020A44914201D1E6
:1036E00008467047036841F8043BF7E74B780A78CF
:1036F000012B4FF0200313FB020012D1D0F8003948
:10370000002B06DB2AB1D0F8003923F08043C0F843
:103710000039D0F8003943F40013C0F80039002014
:103720007047D0F8003B002B06DB2AB1D0F8003BF5
:1037300023F08043C0F8003BD0F8003B43F4001373
:10374000C0F8003BEBE74B780A78012B4FF02003E1
:1037500013FB020011D1D0F8003923F40013C0F894
:103760000039CB78023B012B05D8D0F8003943F063
:103770008053C0F8003900207047D0F8003B23F494
:103780000013C0F8003BCB78023B012BF3D8D0F8F4
:10379000003B43F08053C0F8003BECE7D0F8003822
:1037A000090123F4FE6301F4FE61C0F80038D0F88B
:1037B00000381943C0F800180020704708B5D0F849
:1037C000043823F00203C0F804380320FCF7DEFEBF
:1037D000002008BD08B5D0F8043843F00203C0F853
:1037E00004380320FCF7D2FE002008BD426980693E
:1037F00010407047D0F8183800F50060C0691840D4
:10380000000C7047D0F8183800F50060C069184007
:1038100080B2704700EB411100F50060D1F8082B31
:1038200040691040704710B5D0F81048D0F83438CF
:1038300000EB411001F00F0100F51060CB408068F3
:10384000DB01DBB22343184010BD406900F00100EA
:103850007047D0F8003923F4FF6323F00703C0F862
:10386000003900F500639A6802F00602042A05D1C7
:10387000D0F8002942F00302C0F800295A6800205D
:1038800042F480725A60704710B500240129C0F8D4
:10389000104BD0F8104B44F40024C0F8104BD0F873
:1038A000104B44F01804C0F8104BD0F8104B44F003
:1038B000C044C0F8104B05D14FF08023C0F8142B42
:1038C000C0F8003B002010BD08B500F0D3FB00207D
:1038D00008BD30B5B0F9084085B0028A0B46842C8B
:1038E00090E8220014BF0334002403A80094019040
:1038F000284600F0EFFA01280CBF0398002005B01D
:1039000030BD002808BF012008B500F009FD0020E7
:1039100008BD08B500F0A0FD012803D0BDE80840AF
:1039200000F000BA08BD00000F4B10B51A688242C3
:1039300018D35C681919884201BF416818460919F3
:103940005960446801198A4207D1084909688A42C6
:103950001FBF51681268091941609842026018BF80
:10396000186010BD1346E1E7A83D00209801002033
:103970002DE9F041044600F0BDFB4049404D0B6885
:103980000BBB404A5607404E1BBFD01D02F570537B
:103990004FF4705320F007001CBF02461B1A002092
:1039A000134432607060083B23F0070318605860CE
:1039B000981A0B601360354B50601860344B1860D8
:1039C0004FF000432B602F68274216D1002C42D0C5
:1039D00004F1080358071CBF23F00703083363B141
:1039E0002B4A16689046B34207D8274A156868687C
:1039F000834204D809688D4207D100242BE02C684B
:103A0000002CF7D02A462546F1E729681468116092
:103A1000C21A102A11D9E81841070AD04FF05003F2
:103A200072B683F31188BFF36F8FBFF34F8F62B607
:103A3000FEE742606B60FFF777FF6B68083413495D
:103A4000F61A1F4308680023C8F8006086426F60BA
:103A50002B6038BF0E6000F0E9FB63070AD04FF01F
:103A6000500372B683F31188BFF36F8FBFF34F8F8C
:103A700062B6FEE72046BDE8F08100BF9801002055
:103A80009C3D00209C010020A83D0020A43D00207A
:103A9000A03D002010B50446002832D0194A50F845
:103AA000043C126813420AD14FF0500372B683F3FC
:103AB0001188BFF36F8FBFF34F8F62B6FEE750F8E8
:103AC000081C51B14FF0500372B683F31188BFF355
:103AD0006F8FBFF34F8F62B6FEE723EA020340F811
:103AE000043C00F007FB084A54F8043CA4F1080029
:103AF00011680B441360FFF717FFBDE8104000F09A
:103B000095BB10BD9C3D0020A03D002000F10803A6
:103B10004FF0FF324360C3600361002382600360A3
:103B2000704700230361704743689A684B608A605E
:103B30009A685160996003680861013303607047B7
:103B40000A68531C30B50AD103695A684A6091600B
:103B50008B605960036808610133036030BD00F178
:103B600008035C682568AA42EFD32346F9E7416859
:103B7000826803698A60826851605968884208BF18
:103B80005A6000220261186801381860704700000E
:103B90000C4B1B6801330AD04FF0500372B683F30D
:103BA0001188BFF36F8FBFF34F8F62B6FEE74FF000
:103BB000500372B683F31188BFF36F8FBFF34F8F3B
:103BC00062B6FEE70400002006480068006880F343
:103BD000088862B661B6BFF34F8FBFF36F8F00DF07
:103BE00000BF000008ED00E0DFF80C00016841F4C0
:103BF000700101607047000088ED00E04FF08073B5
:103C000021F0010140F8202C44380364034BC163C8
:103C100083636FF002030362704700BF913B0008AB
:103C2000074B19680868B0E8F04F80F30988BFF3C4
:103C30006F8F4FF0000080F311887047AFF3008062
:103C4000B83D00204FF0500372B683F31188BFF3E4
:103C50006F8FBFF34F8F62B60B4A13680133012B8E
:103C600013600FD1094B1B6813F0FF0F0AD04FF000
:103C7000500372B683F31188BFF36F8FBFF34F8F7A
:103C800062B6FEE7704700BF0400002004ED00E0CC
:103C9000094A136853B94FF0500372B683F3118881
:103CA000BFF36F8FBFF34F8F62B6FEE7013B136028
:103CB0000BB983F311887047040000200000000056
:103CC000EFF30980BFF36F8F154B1A681EF0100FCA
:103CD00008BF20ED108A20E9F04F10604DF8043D38
:103CE0004FF0500072B680F31188BFF34F8FBFF3CF
:103CF0006F8F62B600F074FB4FF0000080F3118804
:103D000008BC19680868B0E8F04F1EF0100F08BF33
:103D1000B0EC108A80F30988BFF36F8F704700BF43
:103D2000B83D002008B54FF0500372B683F31188F8
:103D3000BFF36F8FBFF34F8F62B600F0E3F918B196
:103D40004FF08052024B1A60002383F3118808BDA4
:103D500004ED00E0064B4FF47A721B68B3FBF2F3FC
:103D6000044A013B13600722034B1A60704700BFEF
:103D7000B000002014E000E010E000E0234B13B599
:103D80001A780021D2B20192FF221A701B78204AC1
:103D9000DBB28DF803309DF8033003F0500313704D
:103DA00007221C4B1A609DF80300541E000623D402
:103DB00001B11A601A68120202F4E0621A60019BF3
:103DC000124ADBB21370144B1A6842F470021A6084
:103DD0001A6842F070421A60FFF7BCFF00220F4BD6
:103DE0001A60FFF701FF0E4A136843F04043136067
:103DF000FFF7EAFEFFF7CCFE9DF8032001215200F9
:103E0000D2B28DF803202246CDE700BF00E400E0E7
:103E1000B03D0020B43D002020ED00E00400002073
:103E200034EF00E0064A13681968064B19B94FF0E1
:103E3000FF321A6070471268D268D2685268F8E799
:103E4000BC3D0020943E0020F8B51B4B04461B4EA1
:103E50000F461D6830680430FFF789FE334640B9CD
:103E600031680120164EC96A3268884022EA000291
:103E70003260621C07D137B1196812480431BDE8BD
:103E8000F840FFF751BE2C441A68A542546007D988
:103E90000D4A10681968BDE8F8400431FFF750BEBC
:103EA0000A4A106819680431FFF74AFE084B1A687D
:103EB000944200D21C60F8BDDC3E0020B83D0020DA
:103EC000643E0020B43E0020C03D0020BC3D0020E8
:103ED000943E00202DE9F84F4FEA820A80460F46B3
:103EE000994650460B9EFFF743FD0546002800F01B
:103EF00096805420FFF73CFD0446002800F08C809B
:103F0000AAF1040A05637B1E00F1340255440F3701
:103F100025F0070A597802F8011B13F8011F09B1AF
:103F2000BB42F7D10A9D4FF0000B271D062D84F8E8
:103F300043B03846C4F848B028BF0625E56265643A
:103F4000C5F10705FFF7EDFD04F11800FFF7E9FDE6
:103F5000C4F84CB024614A46A561414664625046AB
:103F600084F850B0FFF74AFE206006B13460FFF7D6
:103F700069FE324B324E1A68DFF8F08001321A6067
:103F80003568002D4ED134601B68012B1DD108EB24
:103F900005001435FFF7BAFD8C2DF8D1DFF8D0906D
:103FA000284D4846FFF7B2FD2846FFF7AFFD2648EB
:103FB000FFF7ACFD2548FFF7A9FD2548FFF7A6FD53
:103FC000244BC3F80090244B1D60244A012524494A
:103FD0001368086801331360E26A05FA02F30343C9
:103FE00014200B60394600FB0280FFF79DFDFFF7B0
:103FF0004FFE1C4B1B6863B13368DA6AE36A9A426E
:1040000007D24FF08052184B1A60BFF34F8FBFF3A7
:104010006F8F2846BDE8F88F2846FFF73BFD4FF02D
:10402000FF35F6E70F4B1B68002BCED13368DA6AF9
:10403000E36A9A42C9D83460C7E700BF503E002007
:10404000B83D00207C3E00209C3E0020C83E002061
:10405000B43E0020BC3D0020C03D0020603E00205A
:10406000643E0020B03E002004ED00E0C43D00208E
:10407000683E002013B5194B002480221849019393
:10408000234600941748FFF725FF012816D14FF06B
:10409000500372B683F31188BFF36F8FBFF34F8F56
:1040A00062B64FF0FF32104B1A60104B1860104B85
:1040B0001C6002B0BDE81040FFF760BE01300AD1BD
:1040C0004FF0500372B683F31188BFF36F8FBFF3C5
:1040D0004F8F62B6FEE702B010BD00BF903E0020D9
:1040E000257500086D430008943E0020B03E002076
:1040F000DC3E0020024A136801331360704700BFA2
:104100005C3E00202DE9F84F3D4B1B68002B55D13C
:104110003C4B1C6801341C60CCB93B4B1A681268DC
:1041200052B14FF0500372B683F31188BFF36F8F13
:10413000BFF34F8F62B6FEE7344A19681068186003
:104140001160334A136801331360FFF76BFE314D82
:104150004FF0000B304F2B689C423ED3DFF8A88015
:10416000DFF8C490D8F80020126872BB4FF0FF321D
:104170002A6032E006F1040A5046FFF7F8FCB16A03
:1041800019B106F11800FFF7F2FCF06A0122D9F824
:1041900000304FF0140E02FA00F119431F4BC9F81A
:1041A000001051460EFB0030FFF7BEFC3868F16A84
:1041B000C26A914228BF4FF0010BD3E7184A4FF073
:1041C000000B13680133136011E0D8F80020D268A7
:1041D000D66871688C42CDD229603A680F4BD16A9B
:1041E00014224A439A58022A28BF4FF0010B0D4A65
:1041F0001268002A18BF4FF0010B5846BDE8F88F2F
:104200005C3E0020DC3E0020BC3D0020C03D002084
:10421000983E0020943E0020B83D0020C43D002080
:10422000583E0020E03E0020643E00202DE9F84387
:10423000324C236853B94FF0500372B683F31188A0
:10424000BFF36F8FBFF34F8F62B6FEE7FFF7FAFC45
:104250002368013B236024682CB10024FFF718FD7C
:104260002046BDE8F883264B1B68002BF5D0DFF80D
:10427000A890244FDFF8A480D9F80030E3B90CB13E
:10428000FFF7D0FD204D2C6844B1204E0127FFF7E9
:1042900039FF00B13760013CF9D12C601B4B1B6822
:1042A000002BDAD04FF08052194B1A60BFF34F8FBA
:1042B000BFF36F8F0124D1E7D9F80C300125DC68FA
:1042C000261D04F11800FFF752FC3046FFF74FFCA3
:1042D000E26A3968142005FA02F300FB02800B43FE
:1042E00031463B60FFF720FC0A4BE26A1B68DB6A41
:1042F0009A42C1D3054B1D60BEE700BF5C3E002063
:10430000503E0020643E0020583E0020E03E002049
:1043100004ED00E0B83D00209C3E0020C43D00209C
:1043200008B540B94FF080520E4B1A60BFF34F8F63
:10433000BFF36F8F08BD0C4B196851B14FF050039C
:1043400072B683F31188BFF36F8FBFF34F8F62B6DE
:10435000FEE7FFF7CFFEFFF777FDFFF767FF0028C7
:10436000E0D008BD04ED00E05C3E0020174E08B52B
:10437000174C236863B9174B1B68012BF8D94FF012
:104380008052154B1A60BFF34F8FBFF36F8FEFE76B
:10439000FFF7B0FE3568FFF749FF002DE9D0FFF7C2
:1043A00051FCF368DD68281DFFF7E1FB0B4A136839
:1043B000013B13602368013B2360FFF769FC286B16
:1043C000FFF768FB2846FFF765FBD2E7C83E0020F1
:1043D000543E0020C43D002004ED00E0503E00208B
:1043E000184B1A68184B10B512B101221A6010BD93
:1043F0001A60164B1B68B3FA83F3DBB2142214491C
:10440000C3F11F035A438C58881854B94FF0500316
:1044100072B683F31188BFF36F8FBFF34F8F62B60D
:10442000FEE74468083264680A449442446004BF6A
:1044300062684260142202FB03135B68DA68054B72
:10444000D4E700BF5C3E0020E03E0020643E002038
:10445000C43D0020B83D0020054B1B6833B1054B1F
:104460001B68002B0CBF0220002070470120704702
:10447000B03E00205C3E002008B580B1D0F88C3200
:1044800013B10023C0F88C3209B1C0F8881201239F
:10449000027080F8743202F089FB002008BD02200F
:1044A00008BD19B1C0F88C12002070470220704777
:1044B00008B502F0AFFB002008BD08B5D0F88C327B
:1044C0000BB9022008BD1B6898470028F9D108BD28
:1044D00008B5D0F88C325B689847002008BD38B525
:1044E00000F520750446284600F0EBFA012394F805
:1044F0008012C4F86C32B4F88632C4F8703201F01D
:104500001F03012B0ED007D3022B10D001F0800126
:10451000204602F0B9FB03E02946204600F000F9EE
:10452000002038BD2946204600F01CFAF8E729464D
:10453000204600F03CFAF3E770B50546164639BB55
:10454000D0F86C32032B1ED1D0F84C31D0F850216A
:1045500093420BD99B1A31469A42C0F84C318CBF1A
:104560009AB292B200F0FDFA002070BDD0F88C3201
:104570001B6923B190F87422032A00D1984728467A
:1045800000F0F7FAF0E7052BEED102F07DFBEBE748
:10459000D0F88C329B692BB190F87422032A01D198
:1045A0009847E1E7022070BD70B5134604460E46F9
:1045B000002947D1D0F86C22022A3CD1056A426A10
:1045C000954213D9AA1A1946026292B200F0C1FAB2
:1045D00033461A461946204602F0A2FB94F8783278
:1045E0000020012B3AD184F8780270BDC369B3FB77
:1045F000F2F502FB153565B99A420AD8D0F8702257
:10460000934206D22A4600F0A4FAC4F870522B4610
:10461000DFE7D4F88C32DB682BB194F87422032ADC
:1046200001D1204698478021204602F02DFB2046EC
:1046300000F0AAFAD2E732F00403CFD1802102F0D1
:1046400023FBCBE7D0F88C325B6933B190F874224E
:10465000032A02D19847002070BD022070BD0022BD
:10466000402370B5044601254026114602F0E0FAC9
:1046700080213346C4F84451C4F8506100222046DA
:1046800002F0D6FA0021D4F89032A561666284F86F
:104690007452C4F86C126160C4F87C1223B1D4F86F
:1046A0008C3220465B689847002070BD0174002062
:1046B000704790F8743280F87532042380F87432B1
:1046C0000020704790F8753280F8743200207047EF
:1046D00008B590F87422032A04D1D0F88C32DB6933
:1046E00003B19847002008BD0020704700207047A4
:1046F000002070470122017908B580F87422D0F8B3
:104700008C2252689047002008BD10B504468021D5
:1047100002F0BAFA00212046BDE8104002F0B4BA17
:1047200037B50B7804460D4603F06003202B14D0F8
:10473000402B12D0002B40F095804B78092B00F2D3
:104740009080DFE813F0E70001018E00FA008E0090
:10475000820013008E00D200A000D4F88C322946CB
:1047600020469B689847002003B030BD4B881A0A4A
:10477000013A0E2A75D8DFE802F024283574745502
:104780005E747474747474740800D0F88832DB69D1
:104790000DF10601207C9847BDF8062052B1EB8848
:1047A00043B19A420146204628BF1A46ADF806207A
:1047B00000F0C2F9EB88002BD5D1204600F0D9F9E2
:1047C000D1E7D0F888321B68E2E7027CD0F88C325F
:1047D00032B99B6A0DF10600984702234370DBE76C
:1047E000DB6AF7E7DBB2052B3BD8DFE803F0030712
:1047F0000B0F1317D0F888325B68C9E7D0F88832FE
:104800009B68C5E7D0F88832DB68C1E7D0F888320A
:104810001B69BDE7D0F888325B69B9E7D0F8883208
:104820009B69B5E7037CE3B9D0F88C320DF1060043
:104830005B6B9847B0E7037C9BB9D0F88C320DF1E5
:1048400006001B6B98470723C8E78B884BB9CB88BA
:104850003BB94D887F2D04D890F87432E9B2032B10
:1048600003D12046FFF751FF7DE780F8761202F072
:104870003BFA204600F07DF91DB1022384F8743222
:1048800071E70123FAE78978354D01292970E8D8C5
:1048900090F87432022B08D0032B14D0FFF735FFA9
:1048A00029782046FFF714FE5DE7002985D0012115
:1048B0000323416080F874322046FFF7FEFD022892
:1048C0007FF47BAFCDE731B90223416080F87432C9
:1048D000FFF7FEFD71E7416801293FF46EAFC9B2F1
:1048E000FFF7F6FD29786160E6E7CA88012AB8D1AA
:1048F00090F87432002BB4D0022B03D9032BB0D123
:10490000011D03E00146002341F8083F204600F066
:1049100013F928E790F87432013B022BA1D8CB8819
:10492000022B9ED10123C360D0F87C320BB103234C
:10493000C360022204F10C01E8E74B88012B7FF4ED
:1049400012AFC4F87C3238E790F87432013B022B86
:1049500087D84B88012B7FF406AF0023F1E700BF17
:10496000E43E002038B50B7804460D4603F06003A2
:10497000202B02D0402B00D0B3B994F87432013B05
:10498000022B10D82B79012B0DD8D4F88C32294664
:1049900020469B689847EB881BB910B9204600F069
:1049A000E8F8002038BD2046FFF7AFFEF9E738B53C
:1049B0000A7804460B4602F06002202A13D0402AEF
:1049C00011D06AB95D788A88012DD1B21FD035D354
:1049D000032D05D190F87422022A26D0032A0AD08A
:1049E000FFF793FE05E0D4F88C2219462046926822
:1049F0009047002038BD5A882AB94A0603D0DB8880
:104A00000BB902F041F9204600F0B3F8F1E790F855
:104A10007422022A09D0032AE2D15B88002BE8D154
:104A20004D06F0D002F03EF9EDE74B0617D002F04C
:104A30002BF98021204602F027F9DAE790F874324A
:104A4000022B0ED0032BCBD112F0800F4FF01403AA
:104A500001F00F0203FB020214D09269EAB920466A
:104A6000BEE74906FBD113064FF000034FF00202E8
:104A70004CBF00F1140100F5A0710B60204600F05E
:104A80005BF8B6E7D2F84421002AE8D001F07F05B0
:104A900003FB050505F5A07504E001F07F0505FBA6
:104AA0000335054411F07F0303D12B600222294610
:104AB000E4E7204602F004F908B10123F5E7286095
:104AC000F4E70B7803704B784370CA788B7803EB6C
:104AD000022343804A790B7903EB02238380CA794E
:104AE0008B7903EB0223C380704710B50446802105
:104AF00002F0CAF800212046BDE8104002F0C4B818
:104B000030B588B105462B1A15F8014BDBB2002CE5
:104B1000F9D1013301385B0013800B7003234B7014
:104B2000022310F8015F05B930BD5A1CCD54023381
:104B3000D2B2DBB28C54F4E71346022210B5C0F8AF
:104B40006C220A46C3610021036202F0DBF80020F8
:104B500010BD08B513460A46002102F0D3F8002024
:104B600008BD08B513460A46002102F0D9F8002016
:104B700008BD08B50423C0F86C3200231A46194654
:104B800002F0C0F8002008BD08B50523C0F86C325B
:104B900000231A46194602F0C3F8002008BD0000A1
:104BA00020230380004870476000002020230380FA
:104BB00000487047400000202023038000487047D1
:104BC0008C0000200A2303800048704780000020EA
:104BD00038B5037C0446E3B94FF400730222012187
:104BE000012502F025F84FF40073C4F85851022251
:104BF0008121204602F01CF8E5624FF41B7002F0A0
:104C00008FFBC4F8900270B1204600F0EAF8002053
:104C100038BD012540230222012102F009F8C4F821
:104C200058514023E3E7022038BD38B5044600253B
:104C3000012102F00DF88121C4F85851204602F0FC
:104C400007F82046E56200F0F7F8D4F8900218B1B2
:104C500002F06EFBC4F89052002038BD00232DE90D
:104C6000F341ADF8063004460B780E46D0F890724A
:104C700013F060022DD0202A04D14A78FE2A05D0F4
:104C8000FF2A18D0FFF731FF02201FE04D88002DCA
:104C900075D1B1F80680B8F1010F70D11A066ED542
:104CA000D0F894329B69984742463946386020468E
:104CB000FFF742FF09E04A88002A60D1CD88002D25
:104CC0005DD11B065BD400F0ACF8002002B0BDE85B
:104CD000F0814B780B2B52D8DFE803F0061C5151C2
:104CE0005151515151510E1590F87432032B46D148
:104CF00002220DF10601DAE790F87432032B3ED15F
:104D00000122391DD3E790F87432032B37D18B7809
:104D10007B60DAE7097901F0A9FF3179204601F0DB
:104D200097FFB3881421227C13F0800F03F00F0348
:104D300001FB03434FF0000111D099616AB94FF4B0
:104D4000007302228121204601F072FF0123E362F9
:104D50003179204600F01CF9B7E74023F1E7C3F8AA
:104D6000441152B94FF4007302220121204601F090
:104D70005FFF0123C4F85831EAE74023F4E73146E6
:104D800020467FE708B500F079F8002008BD08B597
:104D900000F090F8002008BD09B1C0F8941200207E
:104DA000704770B5D0F89042054694F818323BB978
:104DB000D4F8143223B1637A13B9012101F064FFEE
:104DC0008121284601F060FF637A022B08D104F5A7
:104DD000037228461F230121BDE8704001F0A0BFE7
:104DE00070BD70B5D0F890520446002028726872E9
:104DF00085F85D0285F85C02D4F894321B68984708
:104E00000121204601F032FF8121204601F02EFFD2
:104E100005F5037220461F230121BDE8704001F013
:104E20007FBFD0F890220023012113721F235172FB
:104E300002F5037201F074BFD0F8903200221A72AA
:104E40007047000070B50C4B0546D0F89042C4F88E
:104E50002C32002384F8381204F50B72237281215E
:104E60000D2301F04FFF04F5037228461F23012193
:104E7000BDE8704001F054BF55534253D0F8903212
:104E800010B51A7A0446022A03D012D3042A0ED986
:104E900010BD03F21B2293F8191200F0A3F80028AA
:104EA00007DA01212046BDE81040FFF7CBBF002103
:104EB000F9E710BD70B5D0F890420546237A13B1DA
:104EC000012B59D070BDD4F810320121C4F8303212
:104ED000D4F81432C4F8343201F030FF1F2894F8AB
:104EE00019120BD1D4F80C22284B9A4206D1012971
:104EF00004D894F81A32013B0F2B0BD9202305223A
:104F0000284600F0A1FA022363722846BDE87040EB
:104F1000FFF747BF04F21B22284600F063F8002881
:104F2000237A07DA052BF0D101212846BDE870402D
:104F3000FFF788BF013B022B26D96389D3B1D5F88F
:104F4000901204F10C021C46D1F83402D1F814621C
:104F5000001B9E42C1F834024FF0000038BFB3B2CC
:104F600081F838020420087228468121BDE870408B
:104F700001F0C8BE1946D8E704F21B2294F81912B2
:104F800000F030F80028CFDB70BD00BF555342431E
:104F900010B5D0F89042637A022B05D1812101F03F
:104FA00073FE0023637210BD0A0606D5012B04D0E0
:104FB0000121BDE81040FFF745BF10BDD0F8902299
:104FC00092F85D3202EBC3000133DBB280F83C1291
:104FD0000021042B80F8401214BF82F85D3282F861
:104FE0005D1270472DE9F347137805460C461746C6
:104FF0001E2B16D01AD8122B00F0E9800CD8002BEB
:1050000000F09780032B00F0B28005212846FFF7BF
:10501000D5FF4FF0FF34A6E01A2B00F000811B2BC8
:10502000F3D1D5F8903200245C819CE0282B00F06D
:10503000408127D8232B00F01081252BE5D1D0F813
:105040009062D0F89432204606F25E2206F518717E
:105050005B6898470446002840F01381D6F8603218
:105060003074013B70741A0EF37332731A0C72733E
:105070001A0AB6F85E32B273F3741A0A0823B274CD
:10508000738170E02F2B00F0C6815A2B00F0D68080
:105090002A2BBAD1D0F89062337A002B40F07E816F
:1050A00096F91832002B49DBD0F8943208469B68F9
:1050B0009847002840F0E580D5F894322046DB6818
:1050C00098470446002840F0DC80FA78BB78120448
:1050D00042EA03627B791A433B7942EA0322C6F82B
:1050E00064223B7AF97943EA0121D5F890325018CD
:1050F000D3F86032C6F8681298421FD8B6F85E320C
:105100005A434B43C6F86422D6F81422C6F86832D4
:10511000934213D1B3F5007F4FF0010106F10C0269
:10512000284628BF4FF4007331729BB201F0F8FD9E
:1051300019E0D0F89062D6F8147227B105212846FC
:10514000FFF73CFF0CE0D0F8943208469B68984784
:10515000044638B102212846FFF730FF0523337299
:10516000002400E07081204602B0BDE8F087D0F84E
:105170009032002003F10C0203F11E0102F8010B32
:105180008A42FBD1702293F85D121A730C22DA74F2
:1051900093F85C22914213D003EBC201013291F8E3
:1051A0003C42D2B29C73042A91F841421C7691F899
:1051B000401218BF83F85C22597608BF83F85C025E
:1051C00012225A813A79122A98BF5A81C8E77B780D
:1051D000D0F89022DB070CD507239849538102F1C0
:1051E00012030B3211F8010D03F801099A42F9D1AB
:1051F000B6E7D0F8943201EBC1043979DB6903EBEF
:105200008404237905338B4228BF0B465381002B3E
:10521000A6D0013B9BB2E05CD1180873F7E7D0F849
:105220009032082286495A8103F113020B3311F898
:10523000010D02F801099342F9D191E7D0F89032BB
:10524000082280495A8103F113020B3311F8010D32
:1052500002F801099A42F9D182E7D0F89062002160
:1052600006F10C0306F1180203F8011B9342FBD16F
:10527000D5F894320DF1020201A920465B689847E7
:1052800008B102215BE708237075F373019B013BB2
:105290001A0EF37432741A0C72741A0A0223B2745E
:1052A0003375BDF802301A0AF3750C23B275738199
:1052B00056E7D0F89062337AA3BB96F91832002BE8
:1052C000BFF63CAFD0F8943208469B689847002858
:1052D000D7D1FB78BA781B0443EA02637A79134387
:1052E0003A7943EA0223C6F86432FA79397A41EA14
:1052F0000221D5F890225818D2F86022C6F8681218
:1053000090423FF61BAF02223272B6F85E22534340
:105310004A43C6F86432D6F81432C6F868229A4274
:105320007FF40CAF4FF4007320467381D5F8906280
:10533000D6F8687206F10C08B6F85E229F42D6F8DD
:10534000641228BF1F46D5F894321FFA87F9D3F8A4
:1053500010A0B9FBF2F3B1FBF2F24146D0470028AE
:1053600001DA0421EBE64B4642468121284601F052
:10537000C9FCD6F86432D6F868423B44E41BC6F850
:105380006432D6F83432C6F86842DF1BC6F834728D
:10539000002C7FF4E5AE03233372E4E6D6F868729E
:1053A00006F10C08B6F85E22B7F5007FD6F8641255
:1053B000D0F8940228BF4FF40077D0F8149020461C
:1053C000BBB2B3FBF2F3B1FBF2F24146C84700288F
:1053D000C7DBD6F86432D6F834223B44C6F86432D0
:1053E000D6F86832DB1BD71BC6F86832C6F83472B1
:1053F00023B900212846FFF725FDB1E6B3F5007F6C
:1054000042464FF00101284628BF4FF400739BB27B
:1054100001F086FCA4E65478D0F8903214F002042F
:105420007FF48CAED3F86812D3F864220A44D3F820
:1054300060128A427FF6F8AD80E600BF4175000831
:105440003A75000832750008D0F8901291F85D3274
:1054500001EBC3000133DBB280F83C220022042BB5
:1054600080F8402214BF81F85D3281F85D227047D8
:105470000F4B30B55D7A05F0FF04B5B95D7A5C5528
:105480005D7A03EB85056860587A184402725A7A8F
:10549000D2B2501C3032C0B258723A230A70204641
:1054A0004B702F23CC708B7030BD012030BD00BFFE
:1054B000E83E00200022FFF7DBBF0000064A002381
:1054C000C260064A036002614FF47A72436003814E
:1054D00042610376704700BF40787D01801A060064
:1054E00007B541F0400143F001038DF804208DF829
:1054F0000010110E8DF805308DF80110110C436964
:105500008DF80210110A062200688DF80310694612
:10551000FCF70FFF03B05DF804FB000043692DE9C1
:10552000F3410025DFF84080009304460E461746FD
:1055300001230A4600680C49FCF79FFF3378FF2BD4
:105540000FD1AF4203D1012002B0BDE8F081636901
:1055500032464146206800930123FCF78EFF013557
:10556000ECE70020F0E700BFAC00002073B5FF239C
:1055700002AC05460E4604F8013D002337211A46C9
:10558000FFF7AEFF21460A222846FFF7C7FF044671
:1055900050B9002E03464FF02901284614BF4FF0A2
:1055A00080420022FFF79CFF204602B070BD000041
:1055B0007FB50E4603A90546FFF7B0FF044678B94C
:1055C0006B690DF10D020849009301232868FCF76F
:1055D00054FF9DF80C209DF80D3043EA02233380E0
:1055E000204604B070BD00BFAC00002037B50C46AB
:1055F00002AD4FF6FF7300220989606825F8023D6D
:10560000FBF7B0FA00230D2120461A46FFF768FF8A
:1056100029460A222046FFF7CBFFBDF80650218914
:105620000122606825B1FBF79DFA012003B030BD6F
:10563000FBF798FA2846F9E77FB516460B4A044669
:1056400010681A4602902046FFF768FF054650B9D9
:10565000636903AA02A9206800930423FCF70DFFE5
:10566000039B1BBA3360284604B070BDF074000879
:105670002DE9F04398461B4B85B0B2F5007F1B889F
:1056800004460F461646ADF80C3020D84369002575
:10569000DFF8549002AA0093012313490068FCF735
:1056A000ECFE9DF80830FE2B6369009301D0A845FD
:1056B00010D833463A460D492068FCF7DEFE636990
:1056C00002AA03A9009302232068FCF7D6FE05B0C6
:1056D000BDE8F083012302AA49462068FCF7CDFE0D
:1056E0000135DEE7F4740008AC000020303F0020F4
:1056F0002DE9FF411F46FF230A9C88468DF80D3097
:105700004FF6FF731646ADF80E30237E03B95602EE
:10571000002221896068FBF725FA00230D2120462D
:105720001A46FFF7DDFE0A220DF10E012046FFF7B3
:105730003FFFBDF80E5045B1606801222189FBF79B
:1057400011FA032004B0BDE8F08132461221204650
:105750002B46FFF7C5FE0A220DF10D012046FFF78B
:10576000DDFEBD422AD100230C21204642F21175F4
:105770001A46204EFFF7B4FE63690DF10D021D4974
:10578000009301232068FCF778FEFF230A220DF125
:105790000D0120468DF80D30FFF7C0FE00238DF877
:1057A0000D309DF80D30FF2B1DD0013D11D16068EB
:1057B00001222189FBF7D6F90120C3E708EB452137
:1057C0004FF47A734FF400722046FFF751FF013512
:1057D000C7E763690DF10D0231460093012320688C
:1057E000FCF74BFEDDE7606801222189FBF7BAF97F
:1057F0000020A7E7AC000020104BB2F5007F1B880B
:1058000073B504460E461546ADF8043014D802A907
:10581000FC23012201F8053D43690068FCF789FD7E
:1058200063692A4631462068FCF783FD63690222DA
:1058300001A92068FCF77DFD02B070BDF674000878
:105840002DE9F0431F4685B0FF230E460C9C1546FC
:105850008DF80C304FF6FF73ADF80E30237E03B990
:105860005502002221896068FBF77CF900230D2195
:1058700020461A46FFF734FE0A220DF10E0120469B
:10588000FFF796FEBDF80E3043B160680122218912
:10589000FBF768F9032005B0BDE8F0832A4619211B
:1058A00020460525DFF80C81FFF71AFE0A2203A91E
:1058B0002046FFF733FE013D63690122414620681F
:1058C000FCF737FD15F0FF05F5D1DFF8E890BD4294
:1058D0002DD104A9FD230122206801F8033D42F2E5
:1058E00011756369FCF725FD636903AA31490093CB
:1058F00001232068FCF7C1FD00232E4E03AA8DF87A
:105900000C3063692B49009301232068FCF7B5FD37
:105910009DF80C30FF2B46D0013D1CD0636903AAD3
:105920003146009301232068FCF7A7FDF0E74FF410
:105930007A734FF4007206EB45212046FFF75CFFB7
:105940000A2203A92046FFF7E9FD9DF80C3003F079
:105950000F030B2B06D1606801222189FBF702F9A6
:10596000012098E70D2BF6D0002342F2117803AA0C
:1059700049468DF80C306369009301232068FCF7D9
:105980007CFD9DF80C30FF2B0BD0B8F10108E2D064
:10599000636903AA4946009301232068FCF76DFD63
:1059A000EFE7013593E7606801222189FBF7DAF818
:1059B000002070E7AC00002030B589B0FF2304461A
:1059C000018908AD0022406805F8153DFBF7CAF8CB
:1059D0000023092120461A46FFF782FD0A222946A4
:1059E0002046FFF79BFD63692A4623490093012364
:1059F0002068FCF742FD636920490093102320686A
:105A00000DEB0302FCF739FD636903AA1B49009300
:105A100002232068FCF731FD012221896068FBF731
:105A2000A1F8227E9DF81730C2B99DF818009DF8A4
:105A30001A20800940EA83009DF816309B0203F487
:105A4000406318439DF819305B00013003F00603F2
:105A500043EAD2130233984009B030BD1804BDF8B0
:105A600018305BBA00F47C109BB203434FF47A7099
:105A700003FB0000F0E700BFAC000020303F002037
:105A800030B589B0FF230446018908AD0022406883
:105A900005F8153DFBF766F80023092120461A4654
:105AA000FFF71EFD0A2229462046FFF737FD6369EE
:105AB0002A461749009301232068FCF7DEFC63693E
:105AC00014490093102320680DEB0302FCF7D5FC6A
:105AD000636903AA0F49009302232068FCF7CDFCF9
