:020000040800F2
:1000000000000820C96500083D5D00083F5D00084C
:10001000415D0008435D0008455D000800000000E8
:10002000000000000000000000000000713F000818
:10003000475D00080000000011400008495D00080D
:10004000196600084D5D0008196600081966000869
:10005000515D0008555D0008196600081966000822
:100060001966000819660008196600081966000874
:100070001966000819660008196600081966000864
:100080001966000819660008196600081966000854
:100090001966000819660008196600081966000844
:1000A0001966000819660008196600081966000834
:1000B000196600081966000819660008595D0008ED
:1000C000655D0008715D00087D5D0008895D0008C0
:1000D000955D0008A15D0008196600081966000812
:1000E00019660008196600081966000819660008F4
:1000F00019660008196600081966000819660008E4
:10010000196600081966000819660008AD5D000848
:10011000B95D0008C55D000819660008D15D0008DA
:1001200019660008196600081966000819660008B3
:1001300019660008196600081966000819660008A3
:10014000196600081966000819660008DD5D0008D8
:100150001966000819660008196600081966000883
:100160001966000819660008196600081966000873
:1001700019660008196600081966000800000000EA
:1001800019660008E95D000819660008ED5D0008C1
:10019000F95D000819660008055E00081966000888
:1001A0000000000000000000196600081966000841
:1001B000115E000819660008196600081966000833
:1001C000196600081966000800000000196600089A
:1001D0001966000819660008196600081966000803
:1001E00019660008196600081966000819660008F3
:0801F000000000001966000880
:1002000010B5054C237833B9044B13B10448AFF350
:1002100000800123237010BDDC01002000000000DD
:100220001C68000808B5034B1BB103490348AFF332
:10023000008008BD00000000E00100201C680008EC
:1002400053B94AB9002908BF00281CBF4FF0FF313D
:100250004FF0FF3000F07AB9ADF1080C6DE904CE33
:1002600000F006F8DDF804E0DDE9022304B0704791
:100270002DE9F0478C460D460446089E002B51D1CF
:100280008A4217466DD9B2FA82FEBEF1000F0BD03A
:10029000CEF1200C01FA0EF520FA0CFC02FA0EF752
:1002A0004CEA050C00FA0EF44FEA174A250CBCFB89
:1002B000FAF81FFA87F90AFB18CC45EA0C4508FB47
:1002C00009F3AB420AD9ED1908F1FF3280F023811E
:1002D000AB4240F22081A8F102083D44ED1AA4B2DD
:1002E000B5FBFAF00AFB105544EA054400FB09F996
:1002F000A14509D9E41900F1FF3380F00A81A14535
:1003000040F2078102383C44A4EB090440EA08406B
:100310000021002E61D024FA0EF4002334607360B3
:10032000BDE8F0878B4207D9002E54D0002186E823
:1003300021000846BDE8F087B3FA83F1002940F0B8
:100340008E80AB4202D3824200F2FA80841A65EBBF
:1003500003050120AC46002E3FD086E81010BDE812
:10036000F08712B90127B7FBF2F7B7FA87FEBEF1A3
:10037000000F34D1EB1B3A0C1FFA87FC0121B3FBB1
:10038000F2F8250C02FB183345EA03450CFB08F391
:10039000AB4207D9ED1908F1FF3002D2AB4200F2AF
:1003A000D1808046ED1AA3B2B5FBF2F002FB1055E6
:1003B00043EA05440CFB00FCA44507D9E41900F10D
:1003C000FF3302D2A44500F2B8801846A4EB0C0417
:1003D00040EA08409DE731463046BDE8F087CEF15F
:1003E000200405FA0EF307FA0EF720FA04F83A0C87
:1003F00025FA04F448EA0308B4FBF2F14FEA184581
:1004000002FB11441FFA87FC45EA044501FB0CF38B
:10041000AB4200FA0EF409D9ED1901F1FF3080F07A
:100420008A80AB4240F2878002393D44EB1A1FFAC2
:1004300088F5B3FBF2F002FB103345EA034500FBFD
:100440000CF3AB4207D9ED1900F1FF386FD2AB4284
:100450006DD902383D44EB1A40EA01418FE7C1F102
:10046000200722FA07F88B4005FA01F448EA030353
:1004700020FA07FE4FEA134CFD404EEA040EB5FB8E
:10048000FCF94FEA1E440CFB19551FFA83F844EAA5
:10049000054509FB08F4AC4202FA01F200FA01FA40
:1004A00008D9ED1809F1FF3043D2AC4241D9A9F186
:1004B00002091D442D1B1FFA8EFEB5FBFCF00CFB40
:1004C00010554EEA054400FB08F8A04507D9E4188A
:1004D00000F1FF3529D2A04527D902381C4440EA53
:1004E0000940A4EB0804A0FB02894C45C6464D46D2
:1004F00015D312D056B1BAEB0E0364EB050404FA1F
:1005000007F7CB401F43CC40376074600021BDE843
:10051000F0871846F8E69046E0E6C245EAD2B8EB26
:10052000020E69EB03050138E4E72846D7E74046A9
:1005300091E78146BEE7014678E702383C4445E74B
:10054000084608E7A8F102083D442BE7704700BFC2
:1005500008B5032000F02CF8002005F0B3FB05F0EF
:100560004BFB002008BD0000034A044B11681B78B8
:100570000B441360704700BF583F0020000000206C
:10058000014B1868704700BF583F002038B504463B
:10059000FFF7F6FF0546631C1EBF044B1B78E418EB
:1005A000FFF7EEFF401B8442FAD838BD0000002060
:1005B000074A0002D36800F4E06023F4E0631B0400
:1005C0001B0C43F0BF6343F400330343D360704715
:1005D00000ED00E0194B30B5DC68C4F30224C4F12F
:1005E0000703251D042B28BF0423062D4FF001050A
:1005F0008CBF033C002405FA03F3002803F1FF330A
:1006000001EA030101FA04F105FA04F404F1FF34EC
:1006100002EA040242EA01024FEA021205DA00F09D
:100620000F00D2B2064B1A5430BD00F16040D2B276
:1006300000F5614080F8002330BD00BF00ED00E010
:1006400014ED00E04209012300F01F0003FA00F05E
:10065000014B43F82200704700E100E00138B0F19F
:10066000807F0AD2064BF021064A5860002082F8AB
:100670002310072298601A6070470120704700BF5E
:1006800010E000E000ED00E0044B04281A680CBF05
:1006900042F0040222F004021A60704710E000E009
:1006A00090F83530022B03D080234365012070473A
:1006B0000268052380F835300020136823F0010319
:1006C00013607047164BDA68920704D515498A699A
:1006D00042F020028A61DB68DB0604D5114A936987
:1006E00043F0100393610E4BDA68900604D50D4970
:1006F0008A6942F008028A61DB68590604D5094A12
:10070000936943F004039361054BDA68120604D53C
:1007100004498A6942F002028A61F222DA60704773
:10072000003C02405C3F002070477047374B1A691D
:1007300022F0010270B51A611A69354D22F00202E9
:100740001A611A6922F0F8021A611A6922F4004249
:1007500022F004021A61DC6814F0010418D00122AE
:10076000DA602B78DBB2022B2CD0032B30D09342F3
:1007700030D16B68013B6B606E68DEB1E868FFF7F3
:10078000D3FFEC680134EC602046297A00F042F88F
:100790001E4BDB6813F0F20F26D02B78DBB2022B56
:1007A0001AD0032B2FD0012B17D14FF0FF33EC6859
:1007B000EB6012E04FF0FF342046EC60FFF7B4FF2F
:1007C0002E70E5E700200024FFF7AEFF2C70DFE776
:1007D0002869F8E70024DBE70024FFF773FF2046D1
:1007E000FFF7A3FF00232B702B7803F0FF014BB919
:1007F000064B1A6922F080721A611A6922F000729F
:100800001A61297570BD2C69E7E700BF003C024002
:100810005C3F002039B1012921D002290CBF4FF4DF
:1008200000714FF440710F4B0B281A6988BF0430D8
:1008300022F440721A611A69114319611A6922F08F
:10084000F8021A611A6942F0020242EAC000186115
:100850001A6942F480321A61BFF34F8F70474FF428
:100860008071E0E7003C02402DE9F04F0B6885B055
:10087000DFF8C081019300236C4ADFF8BC914FF090
:10088000010E019C0EFA03FE0EEA0406B64540F086
:10089000B3804C6824F01007022F16D14FEAD30A18
:1008A00003F0070B4FF00F0C00EB8A0A4FEA8B0B9B
:1008B000DAF820500CFA0BFC25EA0C0C0D6905FA4D
:1008C0000BF545EA0C05CAF820504FEA430A032508
:1008D000D0F800B004F0030C05FA0AF5013F0CFA59
:1008E0000AFCED43012F0BEA050B4CEA0B0CC0F898
:1008F00000C011D8876807EA050BCF6807FA0AFC21
:100900004CEA0B078760476827EA0E0EC4F300170E
:100910009F4047EA0E074760C7683D408F6807FA67
:100920000AF73D43C560E50066D5D8F8445023F08A
:10093000030703F0030E4FF00F0C45F4804507F159
:1009400080474FEA8E0EC8F8445007F59C37D8F818
:10095000445005F480450395039D0CFA0EF5D7F835
:1009600008A02AEA050C324DA8424CD005F5806556
:10097000A8424AD005F58065A84248D005F58065B3
:10098000A84246D005F58065A84244D0484544D0E9
:1009900005F50065A84242D005F58065A84240D023
:1009A00005F58065A8423ED005F58065A84214BFD4
:1009B0000A25092505FA0EF514F4803F45EA0C05D1
:1009C000BD606FEA060715680CBF3D40354314F45F
:1009D000003F156055680CBF3D40354314F4801F3F
:1009E000556095680CBF3D403543A4029560D568BD
:1009F00054BF3D403543D5600133102B7FF43FAFEA
:100A000005B0BDE8F08F0025D4E70125D2E7022527
:100A1000D0E70325CEE70425CCE70525CAE7062560
:100A2000C8E70725C6E70825C4E700BF003C01402A
:100A30000000024000380240001402400AB1816107
:100A400070470904FBE703689A69910701D5002202
:100A50009A629A69D20703D49A6942F001029A61B4
:100A6000704711F0010307D090F8413003F02803DC
:100A7000282B0CBF4223F2238A0709D590F8412086
:100A800002F02802282A0CBF43F0440343F0F40389
:100A90004A0701F0110201F0120148BF43F0B80308
:100AA000112A08BF43F09003122901684FF000009B
:100AB00008BF43F060030A6822EA03030B60704733
:100AC00010B5044600284AD090F8413003F0FF02E8
:100AD0001BB980F8402004F0D3FC2423E16884F89B
:100AE0004130012923681A6822F001021A60626805
:100AF00022F070621A619A6822F400429A60A26839
:100B000024D142F400429A605A680020616942F0A0
:100B1000007242F400425A60DA6822F40042DA605D
:100B200022690A43A16942EA0122216ADA60E26984
:100B30000A431A601A6842F001021A6020236064B6
:100B400084F84130206384F8420010BD42F404422E
:100B500002299A60D8D14FF400625A60D4E701208C
:100B600010BD0268436B9169126803B11847704762
:100B70007047704738B50025044680F8425090F819
:100B80004130292B0DD12823012180F84130212328
:100B90000363FFF766FF84F840502046FFF7E8FF45
:100BA00038BD90F841302A2B0CD12823022180F83F
:100BB000413022230363FFF754FF84F8405020465E
:100BC000FFF7D7FF38BD704770470000164B202253
:100BD00010B5C362002304460363436380F84120D9
:100BE00080F842304B0711D5436A5A1C42620268B2
:100BF000526A1A70038D4BB1013B0385438D013B53
:100C00009BB24385436C43F00403436407212046B1
:100C1000FFF727FF236810222046DA61002384F8BB
:100C20004030FFF7D1FF10BD0000FFFF7047704755
:100C30000023344A10B580F842300446C26243852E
:100C4000436C1943416490F84130282B07D090F849
:100C50004130292B03D090F841302A2B21D1032198
:100C60002046FFF7FEFE282384F84130002323634B
:100C7000254B6363236819681A6811F480411DD0FD
:100C800022F48042A06B1A60204B0365002384F895
:100C90004030FFF705FDA0B3A06B036DBDE8104029
:100CA00018470721FFF7DDFE94F84130602B02D092
:100CB000202384F8413000232363DAE712F4004252
:100CC0000DD01A68E06B22F400421A600F4B0365E6
:100CD00084F84010FFF7E4FC98B1E06BDDE794F88E
:100CE0004130602B08D1202384F84020204684F82E
:100CF0004130FFF79CFF10BD84F840202046FFF7ED
:100D000095FF10BD0000FFFF110E00082310000822
:100D100038B52022036804460D46DA61082207210F
:100D2000DA61FFF79EFE236820465A6842F40042CB
:100D30005A605A6822F0FF7222F48B3222F4FF725A
:100D400022F001025A60FFF77EFE22681368580401
:100D500002D41368190409D594F84130212B0CBF33
:100D6000A36BE36B1B685B689BB26385638D9BB26F
:100D70001BB1636C43F0040363646B0710D5636AB3
:100D8000526A591C61621A70238D4BB1013B238555
:100D9000638D013B9BB26385636C43F00403636422
:100DA00000232363636384F84230636C6BB1616C2E
:100DB0002046FFF73DFF94F84130282B24D12946E7
:100DC0002046BDE83840FFF701BFE26A12F5803FD8
:100DD0000AD00E4A204684F84030E262202284F88D
:100DE0004120FFF7F1FE38BD94F84120204684F8F9
:100DF0004030222A4FF0200284F8412002D1FFF730
:100E0000B8FE38BDFFF7B4FE38BD00BF0000FFFFDD
:100E10002DE9F84390F8403004460E461746012B62
:100E200000F0CB800123CD0680F840303ED5D006BF
:100E30003CD5638D9BB28BBBE36AB3F1007F03D0DB
:100E4000E36AB3F1007F14D194F84130282B10D11C
:100E500031462046FFF7BAFEB20605D5BB0603D5DC
:100E600031462046FFF754FF002084F84000BDE8DB
:100E7000F883E36A13F5803F23680CD094F841208F
:100E8000292A08D110222046DA61FFF7DCFD20462E
:100E9000FFF770FEE0E71022DA61DDE72368102239
:100EA000DA61636C43F004036364D5E771071AD514
:100EB0007A0718D5638D9BB263B1636A5A1C62626C
:100EC0002268526A1A70238D013B2385638D013B92
:100ED0009BB26385638D9BB2002BBDD1E36A13F592
:100EE000803FD4D1B8E7330746D53D0744D594F8C1
:100EF000413003F02803282B236837D19A69E16831
:100F00009D69C2F3004802299A684FEA1545D3F853
:100F10000C9005F0FE0520D1C2F3090285EAD21536
:100F200015F006050FD1A16C0131A164A16C022955
:100F300092D10821A564D96184F8405041462046E9
:100F4000FFF741FE88E704212046FFF78AFD0023D2
:100F500009F0FE0284F84030F0E704212046FFF754
:100F600080FD00232A4684F84030E7E70822DA6152
:100F7000002384F840306FE7B0077FF56DAFB90705
:100F80007FF56AAF638D9BB26BB1636A2268591CAF
:100F900061621B789362638D013B9BB26385238DF5
:100FA000013B238558E7E36AB3F1807F3FF46FAFDD
:100FB000E36A002B3FF46BAF4EE70220BDE8F883F5
:100FC000036899691A6810B4CC0508D5140606D5CB
:100FD000446C44F0010444644FF48074DC614C05BB
:100FE00008D5140606D5446C44F0080444644FF454
:100FF0008064DC61890508D5120606D5426C42F092
:10100000020242644FF40072DA61436C13F00B0F7A
:1010100004D0416C5DF8044BFFF70ABE5DF8044B49
:101020007047806B026808B5536843F4004353600F
:101030000023826B1365C26B136590F84130602BFF
:1010400005D1202380F84130FFF7F1FD08BDFFF7FF
:10105000EDFD08BD90F84120D2B2202A10B51DD177
:1010600090F84030012B19D0242380F841300368D8
:101070001C6824F001041C601C6824F480541C606B
:101080001C6821431960196841F0010119600023AF
:1010900080F8412080F84030184610BD022010BD75
:1010A00010B590F84140E4B2202C1CD190F84030AB
:1010B000012B18D0242380F8413003681A6822F0ED
:1010C00001021A601A6822F4706242EA0121196072
:1010D0001A6842F001021A60002380F8414080F84B
:1010E0004030184610BD022010BD2DE9F0410446E5
:1010F0008AB000286BD090F8BD3303F0FF021BB913
:1011000080F8BC2305F07CF8254603236E4604F1E5
:10111000040855F8100B84F8BD3302F094F90FCD94
:101120000FC60FCD0FC695E8030004F1100586E841
:10113000030098E80E002068012602F043F9002120
:10114000206802F086F9002122462346084683F8EB
:101150003C101C33D984013183F821600F2983F8B6
:1011600023009862D8625863F1D100231F4682F8A9
:10117000FC31013382F8FD711C320F2B82F8E371D0
:10118000C2F8E871C2F8EC71C2F8F471EFD10FCD7A
:101190006E460FC60FCD0FC695E8030086E8030024
:1011A00098E80E00206802F095F9012384F8387061
:1011B00084F8BD33636A012B02D1204600F09FFC06
:1011C000206802F0A9FC00200AB0BDE8F0810120EF
:1011D000FAE790F8BC33012B10B504460CD001237C
:1011E00080F8BC33006802F08BFC206802F025F91F
:1011F000002084F8BC0310BD022010BD2DE9F04F83
:10120000076887B004463846D7F840A002F0BFFC14
:101210000290002840F04F81206802F089FC0028ED
:1012200000F04981206802F083FC850704D522681C
:10123000536903F002035361206802F079FC10F453
:1012400000250CD007F53068264600252068C146E9
:1012500002F072FC0390039B002B40F02F8120686A
:1012600002F066FC42030BD52068264602F06CFCB7
:1012700007F5106983460025BBF1000F40F0A181FE
:10128000206802F055FC002815DAD7F8043823F05E
:101290000103C7F8043894F8F033012B40F027829B
:1012A0000021204684F8F01305F004F92268536900
:1012B00003F000435361206802F03AFC03050BD5AC
:1012C000D7F80838DE0702D5204605F005F8226871
:1012D000536903F400635361206802F029FC0001A4
:1012E00014D523685A6902F000625A6194F8F02319
:1012F000002A40F000825B6D01212046C3F3830386
:1013000084F8F013C4F8F43305F0D4F8206802F040
:101310000FFCC10435D507F50066736810212068FD
:1013200023F00103736002F0ABF8606807F5106307
:101330004FF67F31029A824240F0E181F36943F037
:101340000113F361236B002B00F0ED81D6F884309C
:1013500043F00B03C6F88430736C43F00B037364E3
:10136000D7F8003804F57072217C23F4FE632068FE
:10137000C7F8003802F02AFC2268536903F480534E
:101380005361206802F0D4FB82041DD5206802F06E
:1013900002FC2068C36823F47053C36002F052F962
:1013A000002840F0C9814FF400732268E060636157
:1013B000D36843F41053D360204604F07CFF2268C6
:1013C000536903F400535361206802F0B1FBC30674
:1013D0002BD52268936923F0100393613E6AC6F30C
:1013E000434306F00F09022B40F01C8247F6F073CE
:1013F0001E4215D04FF01C08C6F30A16384608FBEB
:1014000009483246D8F8081202F004FBD8F808322E
:101410003344C8F80832D8F814321E44C8F81462AD
:101420002268936943F010039361206802F080FB07
:10143000070707D5204604F03AFF2268536903F0F6
:1014400008035361206802F073FBC60208D5E9B2B5
:10145000204604F061FF2268536903F4801353614E
:10146000206802F065FB800208D5E9B2204604F04E
:101470004FFF2268536903F400135361206802F0A0
:1014800057FB410007D5204604F04AFF2268536904
:1014900003F080435361206802F04AFB42070AD5FB
:1014A00023685D686B0702D5204604F03DFF236882
:1014B0005A6815435D6007B0BDE8F08F039BD807FD
:1014C00077D5EAB220681146049202F045FB10F08D
:1014D000010F834639D0B54B0121049A9A45C9F8CA
:1014E0000810216918D9012916D1D8F80810090463
:1014F00003D54FF40041C9F80810D9F81010D6F8F8
:101500000402C1F31201411AC6F81412D6F80812E7
:101510000844C6F8080201E00129EED0A44B9A4520
:101520002DD1D8F808100B0429D54FF40042C9F882
:1015300008202169012908D13DB9D4F8102222B927
:1015400004F57072206802F041FB1BF0080F24D0F4
:10155000974B9A4518D1D8F80820100403D54FF4BA
:101560000042C9F808202269012A10D1D8F80820C1
:1015700011040CD54FF40042C9F8082007E01146C9
:10158000204604F083FED4E7884B9A45EBD82046EA
:1015900004F076FE0822C9F808201BF0100F02D0D4
:1015A0001022C9F808201BF0200F02D02023C9F810
:1015B0000830039B013509F120091C365B080393B1
:1015C00049E61BF0010F71D0EBB220681946039376
:1015D00002F0CBFA10F0010F804622D0012005F076
:1015E0000F02D7F8343800FA02F2039923EA020313
:1015F000C7F834382369C9F808008342204601BF80
:10160000B36C726C9B18B36404F049FE2169012924
:1016100007D135B9236D23B904F57072206802F043
:10162000D5FA18F0080F02D00823C9F8083018F0CE
:10163000100F02D01023C9F8083018F0400F02D064
:101640004023C9F8083018F0020F02D00223C9F86D
:10165000083018F0800F29D02368726D0493336D21
:10166000A3EB0208736C984528BF9846049B08F1C9
:10167000030A03F510634FEA9A0A03EB4513059337
:10168000059B9B699BB2534504D9726D336D9342A0
:1016900000D993B9B8F1000F08D1049B0121D3F808
:1016A0003428A94022EA0102C3F8342801354FEA60
:1016B0005B0B1C3609F12009DEE5A3EB0208736C15
:1016C000039A9845049828BF9846237C00931FFAF4
:1016D00088F3B16C08F1030A02F0B6F8B36C4FEA74
:1016E0009A0A4344B364736D43447365C8E7204664
:1016F00004F00AFEDAE5204604F0EEFD06E6996005
:10170000203353F8202C22F4001243F8202CC3F885
:10171000E811D3F8E02122F40012C3F8E021029A84
:101720000132029206E6736943F02B037361336959
:1017300043F00B03336113E60323E360402363614B
:1017400000F01EFE1B4B1C4A03449342236804D83E
:10175000DA6842F47052DA602EE6184A18490244F8
:101760008A4203D8DA6842F46052F4E7A0F57402C2
:101770001449A2F510528A4203D8DA6842F4505252
:10178000E9E7A0F183721049A2F5E7428A4203D843
:10179000DA6842F44052DEE70C4A0D4902448A42BC
:1017A00018D8DA6842F43052D5E700BF0A30544FF7
:1017B0000A31544F405327FFFF340C00401E1BFFDB
:1017C0003F420F007F4F12001FD6130060B6E5FEA8
:1017D0005FE316001B4A1C4902448A4203D8DA68B8
:1017E00042F42052B7E7194A194902448A4203D801
:1017F000DA6842F41052AEE7A0F1B7721549A2F5CB
:1018000058528A4203D8DA6842F40052A3E7124AD7
:10181000124902448A42DA6894BF42F4E05242F428
:10182000C05298E7062B7FF4FBAD4FF01C0808224E
:1018300004F57071384602F0EDF808FB0948C6F36C
:101840000A16E8E500D3CEFE3F771B00C05BB3FE6F
:10185000BF9121001F753800E05459FEDF9C410004
:1018600090F8BC23012A10B504460BD0012280F861
:10187000BC2384F83810006802F032F9002084F8A4
:10188000BC0310BD022010BD70B5044601F00F006E
:101890001C2611F0800FC5B2C0B206FB05411DBF6A
:1018A00006FB054501263C3101F5FE7105BF06FB2F
:1018B0000545002685F83D6085F8FD618A604A7817
:1018C0000870CB7002B1C880022B04BF00230B71DB
:1018D00094F8BC33012B09D00123206884F8BC3371
:1018E00001F0BEFE002084F8BC0370BD022070BD74
:1018F00001F00F0311F0800FDAB210B504464FF07B
:101900001C0000FB02411BBF00FB0242012000FB48
:1019100002423C3105BF01F5FE71002082F83D0016
:1019200082F8FD010B7094F8BC33012B09D0012320
:10193000206884F8BC3301F0D5FE002084F8BC0395
:1019400010BD022010BD38B501F00F051C2404FBAA
:10195000050104FB050401F5FE71C4F810320023F3
:10196000C4F80822C4F8143284F8FD3184F8FC511C
:1019700003690068012B08BFC4F80C22DAB21DB954
:1019800001F0E2FE002038BD01F072FFFAE71C23EF
:1019900001F00F0103FB0101B1F81402704738B5E3
:1019A00001F00F051C2404FB050104FB05043C3178
:1019B00023650023A2646365012384F83C5084F806
:1019C0003D3003690068012B08BFE264DAB21DB93B
:1019D00001F0BAFE002038BD01F04AFFFAE738B541
:1019E00001F00F05436804469D422ED811F0800F88
:1019F0004FF01C021FD002FB050302FB0501012270
:101A00003C3381F83D2001221D709A7094F8BC137C
:101A100091421CD084F8BC231946206802F008F8D3
:101A20002DB904F57072217C206802F0CFF80020F7
:101A300084F8BC0338BD02FB010302FB0101002254
:101A400003F5FE7381F8FD21DDE7012038BD02209A
:101A500038BD38B501F00F02436804469A4225D8D4
:101A60001C2311F0800F4FF0000503FB02010FBF94
:101A7000002003FB020301203C3105BF01F5FE718C
:101A800003FB024383F83D0083F8FD018D700A706B
:101A900094F8BC33012B0BD00123206884F8BC33AD
:101AA00001F0F3FF84F8BC53284638BD012038BD4F
:101AB000022038BD70B50468636A21B943EA024365
:101AC000A362002070BDA06A4D1E03EB10430020EE
:101AD000461CC0B2854206D83F3143EA024304EBBC
:101AE00081046360EDE7403004EB8000406803EB65
:101AF00010433046ECE7036800205962704701212B
:101B000002680346C0F8F813002083F8F0039369D5
:101B100043F000639361536D43F0805343F003033C
:101B2000536570477047000010B5054C6369DB03CF
:101B300004D5FFF7F7FF4FF48033636110BD00BF9A
:101B4000003C0140194B37B51A6C194C42F08052D9
:101B50001A641B6C03F080530193019B236843F4C8
:101B600080332360FEF70CFD05466368DA030CD56D
:101B7000236843F400332360FEF702FD0C4C054656
:101B800063689B030AD5002006E0FEF7F9FC401BC2
:101B9000B0F57A7FE9D9032003B030BDFEF7F0FC41
:101BA000401BB0F57A7FEBD9F5E700BF0038024063
:101BB000007000402DE9F041069D04460F46164690
:101BC000984621688A683A4214BF01220022B24234
:101BD00002D10020BDE8F0816B1CF3D04DB9042385
:101BE000012084F84130636C43F001036364BDE875
:101BF000F081FEF7C5FCA0EB08008542E1D2EEE7DC
:101C000037B50446FEF7BCFC0546002C4DD094F8D1
:101C10004030012B4BD0012384F8403094F8412010
:101C200002F0FF033AB984F84030204603F09AFDF1
:101C300041F28833A3642068A16802680139A36C6B
:101C400022F4F85242EA012220210260002200938D
:101C500020462B46FFF7AEFF10BB2268E569E3681C
:101C600011682B43256A21F07F412B43656821F0E1
:101C7000D00143EA05630B43A169136063695568AA
:101C80000B43216943EA01430A4929400B4353604E
:101C9000136843F0010313600123606484F841304A
:101CA000002384F8403003B030BD0120FBE7022060
:101CB000F9E700BFFEF8E0FF704708B5806B00232E
:101CC0008363C36290F84130082B0BD10368022272
:101CD000DA601A6842F400321A601A6842F00202AE
:101CE0001A6008BD012380F84130FFF7E5FF08BD09
:101CF00070477047704770477047704770470000E3
:101D000008B5036899681A6811F0040F32D012F40C
:101D1000802F2FD090F84120122A12D102689168AA
:101D2000490702D4FFF7E8FF08BDC16AE9B1426A7A
:101D3000511C4162127883F82020C26A013AC262C3
:101D4000ECE790F84120222AECD10268916849071B
:101D5000E8D5816B49B1026B511C016393F82010E7
:101D60001170826B013A8263EFE7136823F48023DA
:101D70001360D7E711F0020F5FD012F4003F5CD080
:101D80000222DA601A6822F4E0221A6090F84120F8
:101D9000122A12D11A68510709D51A6822F00402D2
:101DA0001A60C36B1A68136823F0010313600123E0
:101DB00080F84130FFF79FFF08BD90F84120222AAC
:101DC00024D11A6852071BD51A6822F004021A603F
:101DD000C36B1A68136823F001031360012380F8B2
:101DE0004130FFF787FF08BD826B002AF6D0026BF7
:101DF000511C016393F820101170826B013A8263C9
:101E00000268926812F4F85FEED1E7E790F841308B
:101E1000022B05D1012380F84130FFF76AFF08BD8E
:101E200090F84130082B48D1012380F84130436CB1
:101E3000002B37D1FFF75CFF08BD11F0080F11D060
:101E400012F4002F0ED00822DA601A68520206D56A
:101E50001A6822F410221A60012380F84130FFF73B
:101E60004CFF08BD11F0010F1FD012F4803F1CD0B1
:101E70000121D9601A6822F470221A60426C42F083
:101E8000020242641A6852070AD51A68C06B22F02F
:101E900004021A60094B0365BDE80840FEF700BC68
:101EA00080F84110FFF708FF08BDC90605D5D2022A
:101EB00003D51022DA60FFF721FF08BDBB1C000824
:101EC0002DE9F341044618B9012002B0BDE8F081C4
:101ED0000368D80710D4236899075ED423681907CC
:101EE00000F1A38023685A0700F1C480A269002A88
:101EF00040F02E810020E8E7934B9A6802F00C0234
:101F0000042A07D09A6802F00C02082A0AD15B68FA
:101F10005A0207D58C4B1B689B03DCD56368002BEA
:101F2000D9D1D1E76368884DB3F5803F11D12B68D3
:101F300043F480332B60FEF723FB834D06462B686A
:101F40009F03C8D4FEF71CFB801B6428F7D903202D
:101F5000BBE79BB92B6823F480332B602B6823F4F9
:101F600080232B60FEF70CFB06462B689803B2D546
:101F7000FEF706FB801B6428F7D9E8E7B3F5A02F2E
:101F80002B6803D143F480232B60D0E723F4803304
:101F90002B602B6823F48023CCE76B4B9A6812F0FC
:101FA0000C0F07D09A6802F00C02082A11D15B6866
:101FB00059020ED4644B1A68920702D5E268012ACE
:101FC00082D11A68216922F0F80242EAC1021A603D
:101FD00084E7E3685C4DBBB12B6843F001032B60E1
:101FE000FEF7CEFA06462B689F0707D52B682269B5
:101FF00023F0F80343EAC2032B606FE7FEF7C0FA51
:10200000801B0228EFD9A2E72B6823F001032B6085
:10201000FEF7B6FA06462B6898077FF55FAFFEF726
:10202000AFFA801B0228F6D991E76369464D83B168
:102030006B6F43F001036B67FEF7A2FA06466B6F06
:102040009B073FF54FAFFEF79BFA801B0228F6D99E
:102050007DE76B6F23F001036B67FEF791FA06468D
:102060006B6F9F077FF53EAFFEF78AFA801B022851
:10207000F6D96CE7344B1A6CD00027D41A6C0126C1
:1020800042F080521A641B6C03F080530193019B51
:102090002E4D2B68D9051BD5A3682B4D012B27D1BD
:1020A0002B6F43F001032B6741F28835FEF768FA86
:1020B000254F80463B6F9B073FD5002E3FF416AF60
:1020C000214A136C23F0805313640FE70026DFE7E7
:1020D0002B6843F480732B60FEF752FA07462B6897
:1020E000DA05D9D4FEF74CFAC01B6428F7D92EE7DD
:1020F000ABB92B6F41F2883823F001032B672B6FAC
:1021000023F004032B67FEF73BFA07462B6F980773
:10211000D3D5FEF735FAC01B4045F7D917E7052B95
:102120002B6F03D143F004032B67B9E723F00103BE
:102130002B672B6F23F00403B5E7FEF721FAA0EB22
:102140000800A842B6D902E70038024000700040FB
:10215000244DAB6803F00C03082B3FF4B5AE2B689D
:10216000022A23F080732B602FD1FEF709FA06466E
:102170002B68990123D4226AE3691343626A43EA14
:102180008213E26A43EA0263226B43EA0273A26AA1
:10219000144C5208013A43EA02436B602B6843F047
:1021A00080732B60FEF7ECF9054623689A013FF532
:1021B000A1AEFEF7E5F9401B0228F6D9C7E6FEF707
:1021C000DFF9801B0228D3D9C1E6FEF7D9F904460E
:1021D0002B689B017FF58EAEFEF7D2F9001B02281B
:1021E000F6D9B4E600380240134908B58B6803F00D
:1021F0000C03042B03D0082B03D0104808BD104853
:1022000008BD4A684B68496802F03F0213F4800336
:10221000C1F388111ABF0A4800230848A1FB000136
:10222000FEF70EF8044B5B68C3F3014301335B0018
:10223000B0FBF3F008BD00BF003802400024F400FA
:1022400000366E012DE9F0410D46044610B901201B
:10225000BDE8F081464A136803F00F038B4228D390
:1022600021688F0730D4C80743D4414A136803F06C
:102270000F039D4267D32268510770D4130707D517
:102280003C4A2169936823F4604343EAC1039360A5
:10229000FFF7AAFF374B384A9B68C3F30313D35C9D
:1022A000D840364B1860002003F00CFD0020BDE83C
:1022B000F081136823F00F030B431360136803F0DE
:1022C0000F039942C3D1CBE711F0040F294B03D080
:1022D0009A6842F4E0529A600E0703D59A6842F475
:1022E00060429A609A68A06822F0F00202439A6005
:1022F000B9E761681F4B01291A681CD112F4003F2D
:10230000A5D09A6841F288381A4E22F003020A4397
:102310009A60FEF735F90746B368626803F00C036C
:10232000B3EB820FA1D0FEF72BF9C01B4045F3D9C8
:102330000320BDE8F081022902D112F0007FDFE71F
:1023400012F0020FDCE7136823F00F032B43136036
:10235000136803F00F039D427FF479AF8BE70549C3
:10236000E0688B6823F4E05303438B6086E700BF8B
:10237000003C0240003802409C6800081801002020
:10238000014B1868704700BF18010020044B054A34
:102390009B68C3F38223D35C034A1068D84070471C
:1023A00000380240AC68000818010020044B054AC0
:1023B0009B68C3F34233D35C034A1068D84070472C
:1023C00000380240AC680008180100200F230360A9
:1023D0000B4B9A6802F0030242609A6802F0F00226
:1023E00082609A6802F4E052C2609B68DB0803F4E2
:1023F000E0530361034B1B6803F00F030B6070474E
:1024000000380240003C02402DE9F74302680446D0
:1024100012F001060BD0B84B996821F400019960C5
:10242000466B99683143B6FA86F67609996012F4DC
:10243000002512D0B049E56BD1F88C30B5F5801F7E
:1024400023F4401308BF012643EA050316BFB5FA7B
:1024500085F500256D09C1F88C30D70210D5A64846
:10246000216CD0F88C30B1F5800F23F4400343EA9F
:102470000103C0F88C3000F08981002908BF0125D4
:1024800012F0807F18BF0126900631D59A4B9B4FE2
:102490001A6C42F080521A641B6C03F08053019353
:1024A000019B3B6843F480733B60FEF769F880460C
:1024B0003B68D90540F16C818F4F3B6F13F440733B
:1024C00040F07181236B03F44072B2F5407F8A4A79
:1024D00040F08F81916823F0704021F4F81120F4CE
:1024E000407001439160C3F30B03116F0B431367FB
:1024F0002368DF060CD5804AD2F88C1021F0807159
:10250000C2F88C10D2F88C10A06B0143C2F88C106A
:10251000580408D57849606ED1F8902022F44032F2
:102520000243C1F89020190408D57349A06ED1F870
:10253000902022F440220243C1F89020DA0308D50B
:102540006D49E06ED1F8902022F440120243C1F8A8
:1025500090209F0308D56849206FD1F8902022F47D
:1025600040020243C1F89020580608D56249606CC9
:10257000D1F8902022F003020243C1F890201906FE
:1025800008D55D49A06CD1F8902022F00C020243DE
:10259000C1F89020DA0508D55749E06CD1F89020B1
:1025A00022F030020243C1F890209F0508D552491D
:1025B000206DD1F8902022F0C0020243C1F8902093
:1025C000580508D54C49606DD1F8902022F440722E
:1025D0000243C1F89020190508D54749A06DD1F8EC
:1025E000902022F440620243C1F89020DA0408D51A
:1025F0004149E06DD1F8902022F440520243C1F8E5
:1026000090209F0408D53C49206ED1F8902022F4F8
:1026100040420243C1F89020580208D53649A06FC5
:10262000D1F8902022F080620243C1F890209902F4
:102630000CD53148E16FD0F89020B1F1006F22F055
:10264000006208BF01250A43C0F890205A0308D54C
:102650002949606FD1F8902022F040720243C1F8FE
:1026600090201F0209D52449D4F88000D1F8902089
:1026700022F080520243C1F89020580109D51E492A
:10268000D4F88400D1F8902022F000520243C1F81F
:102690009020190109D51849D4F88800D1F88C2068
:1026A00022F000720243C1F88C20DA0009D51249E9
:1026B000D4F88C00D1F88C2022F080620243C1F85B
:1026C0008C20012E00F09980B3F1007F00F09580FE
:1026D000012D59D1084D2B6823F080532B60FDF755
:1026E0004FFF06462B689F0000F10B8121680D0308
:1026F00006D5E36B43B103E00038024000700040B0
:10270000C8021DD5236CDBB9854AD2F88830D2F8CF
:10271000880003F4403300F0E0400343606943EA7B
:102720008013A06943EA0063C2F88830D2F88C3085
:10273000A06A23F4F853013843EA0023C2F88C302E
:102740008A0215D5E36FB3F1006F11D1744AD2F844
:102750008830D2F8881003F0706301F0E0410B4339
:10276000616943EA8113216A43EA0143C2F8883070
:102770006B4C236843F080532360FDF701FF05464F
:1027800023689B0040F1C480002009E0012677E621
:10279000FDF7F6FEA0EB080064287FF689AE032063
:1027A00003B0BDE8F083226B02F4407293423FF421
:1027B00089AE3B6F3A6F23F4407342F480323A673C
:1027C0003A6F22F480323A673B673B6FDA077FF556
:1027D00079AEFDF7D5FE41F2883980463B6F9B0705
:1027E0003FF570AEFDF7CCFEA0EB08004845F5D9EB
:1027F000D5E7916821F4F81174E6494E336823F067
:1028000080633360FDF7BCFE074633681B0172D45A
:102810002268D70712D5636B83B9D6F88430D6F80F
:10282000841003F4403301F070610B43616843EAA4
:102830008113A16843EA0173C6F88430160303D5F7
:10284000E36BB3F5801F05D0D0021ED5236CB3F522
:10285000800F1AD13249D1F88430D1F8840003F4C2
:10286000403300F0E0400343606843EA8013E068CF
:1028700043EA0063C1F88430D1F88C00636A20F029
:102880001F00013B0343C1F88C30D10111D524490D
:10289000D1F88430D1F8840003F0706300F0E04098
:1028A0000343606843EA8013206943EA0043C1F8A8
:1028B000843092010DD5236962681B0443EA8213B8
:1028C000E26843EA0263A26843EA0273144AC2F868
:1028D0008430134E336843F080633360FDF750FE5D
:1028E000074633681B013FF5F3AEFDF749FEC01BF9
:1028F0006428F6D953E7FDF743FEC01B642884D94A
:102900004DE7FDF73DFE801B64287FF6EBAE46E702
:10291000FDF736FE401B64287FF632AF3FE700BF6D
:102920000038024070B5044600284ED00023836270
:1029300090F85D3003F0FF021BB980F85C2003F0D3
:102940005FF802232168E26884F85D300B68B2F515
:10295000E06F23F040030B604FF0000332D91846BC
:10296000B2F5706F18BFA362236B2BB9B2F5E06F9D
:102970008CBF022301232363A6686368A5693343E0
:102980002669334366693343E6693343266A334332
:10299000A66A334305F400762D0C334305F0040595
:1029A0000B60636A1A43636B1A432A430243002095
:1029B0004A60CB6923F40063CB610123206684F86D
:1029C0005D3070BD4FF48050CCE7012070BD704782
:1029D000036859689A6830B502F0410585B004462D
:1029E000012D05D14D0603D5C36C984705B030BD08
:1029F000950704D5080602D5236D2046F5E712F4A5
:102A0000B07FF3D08D06F1D550060ED594F85D0059
:102A10000025032841D0206E40F004002066009578
:102A2000D868009098680090009895060CD5206EA4
:102A300040F001002066002002909868029018681B
:102A400020F0400018600298D00508D5226E42F0B0
:102A500008022266002203929A680392039A226E69
:102A6000002AC3D05A6822F0E0025A60012284F89A
:102A70005D208A0718D05A68A06D22F003025A60C0
:102A800018B10B4B0365FDF70BFE606D0028ADD050
:102A9000074B0365FDF704FEA8E70195DA6801928C
:102AA0009B680193019BA1E72046FFF790FF9DE7FC
:102AB000B52A000808B5806B0023A0F84630C3870C
:102AC000FFF785FF08BD704703680020DA6842F011
:102AD0000102DA601A6842F001021A60704770471A
:102AE00070477047704703681A69910710B504462C
:102AF0000FD5DA6892070CD56FF002021A61012235
:102B00009B690277990700F08580FFF7E9FF0023B2
:102B1000237723681A69520710D5DA6850070DD554
:102B20006FF0040220461A6102229B69227713F497
:102B3000407F75D0FFF7D4FF0023237723681A69FD
:102B400011070FD5DA6812070CD56FF0080220467E
:102B50001A610422DB6922779B0767D0FFF7C0FF69
:102B60000023237723681A69D00610D5DA68D106C6
:102B70000DD56FF0100220461A610822DB6922771A
:102B800013F4407F58D0FFF7ABFF0023237723686F
:102B90001A69D20708D5DA68D00705D56FF00102A7
:102BA00020461A6102F0B4FD23681A69110608D59F
:102BB000DA68120605D56FF0800220461A6100F02F
:102BC000C6F823681A69D00508D5DA68110605D554
:102BD0006FF0800220461A6100F0B9F823681A6984
:102BE000520608D5DA68500605D56FF04002204637
:102BF0001A61FFF777FF23681A69910622D5DA6810
:102C000092061FD56FF0200220461A61BDE81040E1
:102C100000F09CB8FFF763FF2046FFF762FF76E7FE
:102C2000FFF75DFF2046FFF75CFF85E7FFF757FFE3
:102C30002046FFF756FF93E7FFF751FF2046FFF7C7
:102C400050FFA2E710BD0000304A0368904212D046
:102C5000B0F1804F0FD0A2F57C4290420BD002F52C
:102C60008062904207D002F58062904203D002F564
:102C7000784290421DD14A6823F070031343234ADF
:102C8000904204D123F44073CA68134328E0B0F1A2
:102C9000804FF7D01E4A9042F4D002F580629042F5
:102CA000F0D002F580629042ECD002F5784290427A
:102CB000E8D0184A9042E5D002F580629042E1D017
:102CC00002F580629042DDD0A2F598329042D9D0D0
:102CD00002F580629042D5D002F580629042D1D058
:102CE0004A6923F08003134303608B68C3620B6857
:102CF0008362064B984206D003F58063984202D067
:102D00000123436170470B690363F9E70000014049
:102D1000000400400040014010B50446A0B190F806
:102D20003D3003F0FF021BB980F83C20FFF7CBFEDB
:102D300002232068211D84F83D30FFF785FF012321
:102D4000002084F83D3010BD012010BD7047704751
:102D500003681A6822F490721A609A6822F00102DD
:102D60009A60202380F86A3070472DE9F041069D73
:102D700004460F46164698462168CA6937EA020398
:102D80000CBF01220022B24202D00020BDE8F08137
:102D90006B1CF2D09DB9236803201A6822F4D0720C
:102DA0001A609A6822F001029A60202384F8693040
:102DB00084F86A30002384F86830BDE8F081FDF7BC
:102DC000DFFBA0EB08008542D6D8E4E770477047E8
:102DD00090F86A300268222B10B52AD18368B0F8C7
:102DE0005C10B3F5805F436D1DD10469DCB9526A94
:102DF000114023F8021B4365B0F85A40013CA4B2CD
:102E0000A0F85A406CB903681A6822F490721A60EC
:102E10009A6822F001029A60202380F86A30FFF756
:102E2000D6FF002010BD526A5C1C11404465197029
:102E3000E2E79369022043F00803936110BD7047F5
:102E40000368DA69196870B5160704469D6807D1EA
:102E5000950663D58E0661D5BDE87040FFF7B8BF13
:102E600015F0010002D111F4907F57D0D50707D596
:102E7000CE0505D501251D62E56E45F00105E56627
:102E8000950706D528B102251D62E56E45F00405BB
:102E9000E566560706D528B104251D62E56E45F0A6
:102EA0000205E566150707D58E0600D420B1082077
:102EB0001862E36E0343E366E36E002B6AD0950667
:102EC00004D5880602D52046FFF782FFE36E204630
:102ED000190704D423689D6815F040051AD0FFF740
:102EE00037FF23689A68520610D59A68606E22F000
:102EF00040029A6050B1284B0365FDF7D1FB0028D2
:102F000048D0606EBDE87040036D18472046FFF75B
:102F100096FF70BDFFF793FFE56670BD16062BD5D3
:102F20000D0629D594F86920212A33D1B4F852200E
:102F300092B242B91A6822F080021A601A6842F00E
:102F400040021A6070BDA268B2F5805FE26C0ED1DB
:102F5000216961B932F8021BC1F308019962E26488
:102F6000B4F85230013B9BB2A4F8523070BD511CF2
:102F7000E16412789A62F3E750060BD54A0609D548
:102F80001A68204622F040021A60202384F8693033
:102F9000FFF71CFF70BD00BF9D2F000808B5806BB8
:102FA0000023A0F85A30A0F85230FFF748FF08BDC0
:102FB00038B504460568C3692169A26828680A43D0
:102FC00061690A4393491A430140206A0A43E16850
:102FD0002A606A6822F440520A436A60A269A968BA
:102FE000024321F430610A43AA608B4A954219D109
:102FF00002F594328949D2F8902002F00302B3F529
:10300000004F8A5C40F0B380082A00F2AD80DFE810
:1030100012F026007B00E900AB00F500AB00AB002E
:10302000AB00FB007E4A954207D102F5FA327D499A
:10303000D2F8902002F00C02E1E77B4A95422BD1B6
:1030400002F5F832D2F8902002F03002102A00F097
:10305000D28016D8DAB9B3F5004F40F09F80FFF761
:1030600095F961684A0802EB4003B3FBF1F39BB2A8
:10307000002023F00F02C3F3420321681343CB6007
:1030800038BD202A00F0AB80302A00F0BA80B3F5BA
:10309000004F69D0012038BD644A95420ED102F537
:1030A000F632D2F8902002F0C002402A00F0A3804D
:1030B000D0D9802A00F09380C02AE6E75C4A954286
:1030C00010D102F5F432D2F8902002F44072B2F539
:1030D000807F00F09080BDD9B2F5007F7FD0B2F53F
:1030E000407FD2E7534A954217D102F59232D2F887
:1030F000902002F44062B2F5806F7CD007D8002A9D
:10310000C5D1B3F5004F54D1FFF750F9A9E7B2F597
:10311000006F64D0B2F5406FB7E7474A95420FD1D0
:1031200002F5E032D2F8902002F44052B2F5805F0E
:1031300061D08FD9B2F5005F51D0B2F5405FA4E7FE
:103140003E4A9542A3D102F5DE32D2F8902002F435
:103150004042B2F5804F4ED07FF67CAFB2F5004FC3
:103160003DD0B2F5404F90E70120002381E7082AC7
:1031700090D801A353F822F09D310008B331000824
:10318000B931000895300008CF31000895300008AB
:103190009530000895300008D5310008FFF7F6F8A3
:1031A000636800EB5300B0FBF3F080B2E8600020EE
:1031B00038BDFFF7FBF8F3E76268530803F57403C3
:1031C00003F51053B3FBF2F39BB2EB60EFE7FFF7AD
:1031D0000BF8E5E76268530803F50043F2E7B3F53F
:1031E000004FE9D16068430803F1F47303F590439D
:1031F000B3FBF0F33BE7B3F5004FE8D1FEF7F4FF84
:103200002FE7B3F5004FE5D16068430803F580333D
:10321000EEE700BFF369FFEF0010014048680008C7
:10322000004400404C68000800480040004C00404A
:10323000005000400014014000780040007C004035
:10324000436ADA0710B506D50168846A4A6822F431
:10325000003222434A609C0706D50168C46A4A6866
:1032600022F4803222434A60590706D50168046B74
:103270004A6822F4802222434A601A0706D5016870
:10328000446B4A6822F4004222434A60DC0606D5B9
:103290000168846B8A6822F4805222438A6099060E
:1032A00006D50168C46B8A6822F4005222438A6002
:1032B0005A0610D50168046C4A68B4F5801F22F4E0
:1032C000801242EA04024A6005D14A68446C22F442
:1032D000C00222434A601B0606D50268816C53680F
:1032E00023F400230B43536010BD37B5002504467B
:1032F000C566FDF745F9226803461268120709D42E
:103300002023002084F8693084F8680084F86A304B
:1033100003B030BD6FF07E424FF4001120460092A2
:103320002A46FFF722FD0028EAD00320F0E710B577
:10333000044660B390F8693003F0FF021BB980F8CF
:10334000682002F019FE22682423204684F86930A0
:10335000136823F001031360FFF72AFE012816D03B
:10336000636A13B12046FFF76BFF236820465A6853
:1033700022F490425A609A6822F02A029A601A68EF
:1033800042F00102BDE810401A60FFF7AEBF012015
:1033900010BD00000A4B013B01D1032070470269B8
:1033A000002AF8DA0369064A43F001030361013A8F
:1033B000F3D0036913F00103F9D11846704700BF39
:1033C000410D030084B038B505AD044685E80E0014
:1033D0000A9B012B27D1836B23F480338363C3685B
:1033E00023F4840323F04003C360C36823F4401331
:1033F000C360119B012B03D1C36843F48013C360E6
:103400002046FFF7C7FF089B012B07D1A36843F0B5
:103410000603A360A36843F02003A3600020BDE877
:10342000384004B07047C36843F04003C360FFF7FF
:10343000B1FF4FF48033A363E5E7836843F00103F2
:10344000836000207047836823F0010383600020BD
:10345000704708B5C368012923F0C043C36008D191
:10346000C36843F00053C3603220FDF78FF800209B
:1034700008BD19B9C36843F08043F4E7012008BDD3
:103480008901074A41F020010161013A05D0036931
:1034900013F02003F9D1184670470320704700BF8E
:1034A000410D03001023064A0361013A05D0036968
:1034B00013F01003F9D1184670470320704700BF7E
:1034C000410D0300D0F800381943C0F8001800205F
:1034D0007047000084B02DE9F843044609A88846E7
:1034E00080E80E0000230B9A0C9F0E991D46139E38
:1034F00003F14000013304EB80000F2B4560F7D14E
:10350000A36B43F40013A3635EB9A36B23F400130E
:10351000A363236843F040032360236843F08003E0
:1035200023600023012904F50065C4F8003ED4F8A7
:103530000038C4F8003858D1002A54D10021204660
:10354000FFF7C0FF10212046FFF79AFF2046FFF744
:10355000A9FF002304F510624FF0904019464FF088
:10356000006E4FF67F3C2B616B61EB61434540D1B0
:10357000002104F530624FF0904E4FF0006C084689
:103580004FF67F388B4246D12B69012F23F480738D
:103590002B6107D1294B2B632B6B43F4803343F012
:1035A00003032B630023A3616FF0804363611FB9A2
:1035B000A36943F01003A361A269214B1343A361E4
:1035C0000F9B1BB1A36943F00803A361012E05D132
:1035D000A36943F0804343F00403A3610020BDE8E6
:1035E000F84304B070470121A9E70329A4D00321BF
:1035F000A5E7D2F80090B9F1000F0ADA3BB9C2F89A
:1036000000E011610133C2F808C02032AEE710605B
:10361000F7E71160F5E7D2F80090B9F1000F0BDA87
:1036200039B9C2F800C010610131C2F808802032F7
:10363000A8E7C2F800E0F6E71060F4E700018000B8
:1036400000383C80D0F8083813F0060007D09B07FC
:1036500004D4042814BF00200220704703207047C0
:1036600070B54A7800F500630C78012ADE6904F031
:103670000F051BD1AA4000EB44103243DA61D0F8A9
:1036800000391A0410D48B68C978C3F30A03D0F840
:10369000002943F0805343F4004343EA814343EA63
:1036A00084531343C0F80039002070BD4FF48032BA
:1036B00000EB4410AA403243DA61D0F8003B1B040F
:1036C000F2D48B68C978C3F30A03D0F8002B43F017
:1036D000805343F4004343EA81431343C0F8003B63
:1036E000E2E7000030B54B7800F500620C78012B62
:1036F000D16B04F00F0510D1AB4000EB4410DB435D
:103700001940D163D1690B40D3610D4BD0F800292A
:103710001340C0F80039002030BD4FF4803300EB77
:103720004410AB40DB431940D163D1690B40D361F6
:10373000044BD0F8002B1340C0F8003BEBE700BF70
:10374000007833EC0078F3EFF0B54B780C78012B70
:103750004E694FF020033B4F4FD113FB040326BBB0
:10376000D3F81059012A25F0FF5525F4C015C3F8E8
:103770001059D3F8105945F40025C3F81059D3F85F
:10378000105907EA0507C3F8107904D100EB441378
:103790000A69C3F8142900EB4410D0F8002942F05C
:1037A0000442C0F800290020F0BD03F510631D6934
:1037B0002F401F611D6925F0FF5525F4C0151D61BF
:1037C0008D68AE4288BF4D61012A1D694E6945F47E
:1037D00000251D61C6F312051F6945EA07051D6135
:1037E000D4D0002ED7D004F00F050123D0F8341820
:1037F000AB400B43C0F83438CDE713FB040000F5B1
:1038000030631C6927401F611C6924F0FF5424F4B5
:10381000C0141C618C6806B14C611D69C4F31204AC
:10382000012A45F400251D611D6944EA05041C6157
:1038300001D1CA685A61D0F8003B43F00443C0F894
:10384000003BB0E70000F8FF10B59DF808404CB908
:10385000033300EB023023F0030300F580500B44E8
:10386000994201D1002010BD51F8042B0260F7E706
:10387000F7B54B7820240E78012B644F4B6914FB6D
:1038800006047BD1002B3ED104F51065D4F8104915
:1038900024F0FF5424F4C0142C612C6944F4002457
:1038A0002C612C6927402F61012A56D100EB461468
:1038B0000D69C4F81459CF78012F10D1D0F80848F9
:1038C00014F4807F4FF0200414FB0604D4F8005950
:1038D0000CBF45F0005545F08055C4F8005900EB89
:1038E0004614012FD4F8005945F00445C4F8005996
:1038F00006D10C789BB200922246C968FFF7A4FF5C
:10390000002003B0F0BDD4F8105904F510642F4026
:10391000276125698F6825F0FF5525F4C0152561BD
:10392000DD19D4F810E0013DB5FBF7F7384D05EA95
:10393000C74545EA0E052561C3F3120527693D43D6
:103940002561CD78012D5ED1256925F0C045256121
:10395000256945F000552561A6E7CC78012CAAD051
:10396000002BA8D00C78D0F834E804F00F0501241F
:10397000AC4044EA0E04C0F834489CE704F53066D5
:1039800035692F403761356925F0FF5525F4C0159D
:1039900035618D681BBB3369C5F312051D43356165
:1039A000336943F400233361012A01D1CB68736189
:1039B000CB78012B0CD1D0F8083813F4807FD4F8E1
:1039C000003B0CBF43F0005343F08053C4F8003B6E
:1039D000D4F8003B43F00443C4F8003B90E72B4489
:1039E0000B4FD6F810E0013BB3FBF5F307EAC347F2
:1039F0009BB247EA0E075D433761C5F3120537698D
:103A00003D433561D0E7012AAAD14FE70000F8FF16
:103A10000000F81F033200F5805022F003020A4430
:103A2000914201D108467047036841F8043BF7E72B
:103A30004B780A78012B4FF0200313FB020012D1C0
:103A4000D0F80039002B06DB2AB1D0F8003923F07A
:103A50008043C0F80039D0F8003943F40013C0F8AF
:103A6000003900207047D0F8003B002B06DB2AB15C
:103A7000D0F8003B23F08043C0F8003BD0F8003B77
:103A800043F40013C0F8003BEBE74B780A78012BB6
:103A90004FF0200313FB020011D1D0F8003923F4BA
:103AA0000013C0F80039CB78023B012B05D8D0F8C1
:103AB000003943F08053C0F8003900207047D0F837
:103AC000003B23F40013C0F8003BCB78023B012BF2
:103AD000F3D8D0F8003B43F08053C0F8003BECE74C
:103AE000D0F80038090123F4FE6301F4FE61C0F848
:103AF0000038D0F800381943C0F80018002070478B
:103B000008B5D0F8043823F00203C0F804380320C5
:103B1000FCF73CFD002008BD08B5D0F8043843F0A0
:103B20000203C0F804380320FCF730FD002008BD74
:103B30004269806910407047D0F8183800F500607D
:103B4000C0691840000C7047D0F8183800F50060C4
:103B5000C069184080B2704700EB411100F5006069
:103B6000D1F8082B40691040704710B5D0F81048C4
:103B7000D0F8343800EB411001F00F0100F510606F
:103B8000CB408068DB01DBB22343184010BD4069A5
:103B900000F001007047D0F8003923F4FF6323F0F0
:103BA0000703C0F8003900F500639A6802F00602C6
:103BB000042A05D1D0F8002942F00302C0F80029F8
:103BC0005A68002042F480725A60704710B5002491
:103BD0000129C0F8104BD0F8104B44F40024C0F871
:103BE000104BD0F8104B44F01804C0F8104BD0F82C
:103BF000104B44F0C044C0F8104B05D14FF0802367
:103C0000C0F8142BC0F8003B002010BD08B500F030
:103C1000D9FB002008BD30B5B0F9084085B0028A54
:103C20000B46842C90E8220014BF0334002403A820
:103C300000940190284600F0F5FA01280CBF039883
:103C4000002005B030BD002808BF012008B500F0F5
:103C50000FFD002008BD08B500F0A6FD012803D027
:103C6000BDE8084000F006BA08BD00000F4B10B5D3
:103C70001A68824218D35C681919884201BF4168EA
:103C8000184609195960446801198A4207D1084940
:103C900009688A421FBF5168126809194160984239
:103CA000026018BF186010BD1346E1E7083E00200F
:103CB000F80100202DE9F041044600F0C3FB404923
:103CC000404D0B680BBB404A5607404E1BBFD01DF2
:103CD00002F570534FF4705320F007001CBF0246EA
:103CE0001B1A0020134432607060083B23F0070366
:103CF00018605860981A0B601360354B506018605C
:103D0000344B18604FF000432B602F68274216D1C8
:103D1000002C42D004F1080358071CBF23F007030E
:103D2000083363B12B4A16689046B34207D8274A36
:103D300015686868834204D809688D4207D1002459
:103D40002BE02C68002CF7D02A462546F1E729689D
:103D500014681160C21A102A11D9E81841070AD054
:103D60004FF0500372B683F31188BFF36F8FBFF328
:103D70004F8F62B6FEE742606B60FFF777FF6B68BC
:103D800008341349F61A1F4308680023C8F8006076
:103D900086426F602B6038BF0E6000F0EFFB630758
:103DA0000AD04FF0500372B683F31188BFF36F8FC0
:103DB000BFF34F8F62B6FEE72046BDE8F08100BF3B
:103DC000F8010020FC3D0020FC010020083E0020FE
:103DD000043E0020003E002010B50446002832D0EA
:103DE000194A50F8043C126813420AD14FF05003AC
:103DF00072B683F31188BFF36F8FBFF34F8F62B634
:103E0000FEE750F8081C51B14FF0500372B683F32F
:103E10001188BFF36F8FBFF34F8F62B6FEE723EABF
:103E2000020340F8043C00F00DFB084A54F8043C3F
:103E3000A4F1080011680B441360FFF717FFBDE8F9
:103E4000104000F09BBB10BDFC3D0020003E002058
:103E500000F108034FF0FF324360C36003610023A9
:103E600082600360704700230361704743689A686B
:103E70004B608A609A6851609960036808610133F9
:103E8000036070470A68531C30B50AD103695A6849
:103E90004A6091608B605960036808610133036078
:103EA00030BD00F108035C682568AA42EFD32346C1
:103EB000F9E74168826803698A60826851605968DD
:103EC000884208BF5A6000220261186801381860F1
:103ED000704700000C4B1B6801330AD04FF05003B1
:103EE00072B683F31188BFF36F8FBFF34F8F62B643
:103EF000FEE74FF0500372B683F31188BFF36F8F64
:103F0000BFF34F8F62B6FEE704000020064800684A
:103F1000006880F3088862B661B6BFF34F8FBFF3C5
:103F20006F8F00DF00BF000008ED00E0DFF80C003D
:103F3000016841F4700101607047000088ED00E005
:103F40004FF0807321F0010140F8202C44380364C5
:103F5000034BC16383636FF002030362704700BFCA
:103F6000D53E000800000000000000000000000036
:103F7000074B19680868B0E8F04F80F30988BFF371
:103F80006F8F4FF0000080F311887047AFF300800F
:103F9000183E00204FF0500372B683F31188BFF330
:103FA0006F8FBFF34F8F62B60B4A13680133012B3B
:103FB00013600FD1094B1B6813F0FF0F0AD04FF0AD
:103FC000500372B683F31188BFF36F8FBFF34F8F27
:103FD00062B6FEE7704700BF0400002004ED00E079
:103FE000094A136853B94FF0500372B683F311882E
:103FF000BFF36F8FBFF34F8F62B6FEE7013B1360D5
:104000000BB983F311887047040000200000000002
:10401000EFF30980BFF36F8F154B1A681EF0100F76
:1040200008BF20ED108A20E9F04F10604DF8043DE4
:104030004FF0500072B680F31188BFF34F8FBFF37B
:104040006F8F62B600F074FB4FF0000080F31188B0
:1040500008BC19680868B0E8F04F1EF0100F08BFE0
:10406000B0EC108A80F30988BFF36F8F704700BFF0
:10407000183E002008B54FF0500372B683F3118844
:10408000BFF36F8FBFF34F8F62B600F0E3F918B143
:104090004FF08052024B1A60002383F3118808BD51
:1040A00004ED00E0064B4FF47A721B68B3FBF2F3A9
:1040B000044A013B13600722034B1A60704700BF9C
:1040C0001801002014E000E010E000E0234B13B5DD
:1040D0001A780021D2B20192FF221A701B78204A6E
:1040E000DBB28DF803309DF8033003F050031370FA
:1040F00007221C4B1A609DF80300541E000623D4AF
:1041000001B11A601A68120202F4E0621A60019B9F
:10411000124ADBB21370144B1A6842F470021A6030
:104120001A6842F070421A60FFF7BCFF00220F4B82
:104130001A60FFF7FBFE0E4A136843F0404313601A
:10414000FFF7E4FEFFF7C6FE9DF8032001215200B1
:10415000D2B28DF803202246CDE700BF00E400E094
:10416000103E0020143E002020ED00E0040000205E
:1041700034EF00E0064A13681968064B19B94FF08E
:10418000FF321A6070471268D268D2685268F8E746
:104190001C3E0020F43E0020F8B51B4B04461B4E8D
:1041A0000F461D6830680430FFF783FE334640B980
:1041B00031680120164EC96A3268884022EA00023E
:1041C0003260621C07D137B1196812480431BDE86A
:1041D000F840FFF74BBE2C441A68A542546007D93B
:1041E0000D4A10681968BDE8F8400431FFF74ABE6F
:1041F0000A4A106819680431FFF744FE084B1A6830
:10420000944200D21C60F8BD3C3F0020183E0020C4
:10421000C43E0020143F0020203E00201C3E002011
:10422000F43E00202DE9F84F4FEA820A80460F46FF
:10423000994650460B9EFFF73DFD0546002800F0CD
:1042400096805420FFF736FD0446002800F08C804D
:10425000AAF1040A05637B1E00F1340255440F37AE
:1042600025F0070A597802F8011B13F8011F09B15C
:10427000BB42F7D10A9D4FF0000B271D062D84F895
:1042800043B03846C4F848B028BF0625E5626564E7
:10429000C5F10705FFF7E7FD04F11800FFF7E3FD9F
:1042A000C4F84CB024614A46A56141466462504658
:1042B00084F850B0FFF744FE206006B13460FFF789
:1042C00069FE324B324E1A68DFF8F08001321A6014
:1042D0003568002D4ED134601B68012B1DD108EBD1
:1042E00005001435FFF7B4FD8C2DF8D1DFF8D09020
:1042F000284D4846FFF7ACFD2846FFF7A9FD2648A4
:10430000FFF7A6FD2548FFF7A3FD2548FFF7A0FD11
:10431000244BC3F80090244B1D60244A01252449F6
:104320001368086801331360E26A05FA02F3034375
:1043300014200B60394600FB0280FFF797FDFFF762
:104340004FFE1C4B1B6863B13368DA6AE36A9A421A
:1043500007D24FF08052184B1A60BFF34F8FBFF354
:104360006F8F2846BDE8F88F2846FFF735FD4FF0E0
:10437000FF35F6E70F4B1B68002BCED13368DA6AA6
:10438000E36A9A42C9D83460C7E700BFB03E002054
:10439000183E0020DC3E0020FC3E0020283F00208C
:1043A000143F00201C3E0020203E0020C03E002084
:1043B000C43E0020103F002004ED00E0243E002019
:1043C000C83E002013B5194B0024802218490193E0
:1043D000234600941748FFF725FF012816D14FF018
:1043E000500372B683F31188BFF36F8FBFF34F8F03
:1043F00062B64FF0FF32104B1A60104B1860104B32
:104400001C6002B0BDE81040FFF760BE01300AD169
:104410004FF0500372B683F31188BFF36F8FBFF371
:104420004F8F62B6FEE702B010BD00BFF03E002025
:1044300059680008BD460008F43E0020103F0020E7
:104440003C3F0020024A136801331360704700BFED
:10445000BC3E00202DE9F84F3D4B1B68002B55D189
:104460003C4B1C6801341C60CCB93B4B1A68126889
:1044700052B14FF0500372B683F31188BFF36F8FC0
:10448000BFF34F8F62B6FEE7344A196810681860B0
:104490001160334A136801331360FFF76BFE314D2F
:1044A0004FF0000B304F2B689C423ED3DFF8A880C2
:1044B000DFF8C490D8F80020126872BB4FF0FF32CA
:1044C0002A6032E006F1040A5046FFF7F2FCB16AB6
:1044D00019B106F11800FFF7ECFCF06A0122D9F8D7
:1044E00000304FF0140E02FA00F119431F4BC9F8C7
:1044F000001051460EFB0030FFF7B8FC3868F16A37
:10450000C26A914228BF4FF0010BD3E7184A4FF01F
:10451000000B13680133136011E0D8F80020D26853
:10452000D66871688C42CDD229603A680F4BD16A47
:1045300014224A439A58022A28BF4FF0010B0D4A11
:104540001268002A18BF4FF0010B5846BDE8F88FDB
:10455000BC3E00203C3F00201C3E0020203E0020AE
:10456000F83E0020F43E0020183E0020243E0020AB
:10457000B83E0020403F0020C43E00202DE9F84313
:10458000324C236853B94FF0500372B683F311884D
:10459000BFF36F8FBFF34F8F62B6FEE7FFF7FAFCF2
:1045A0002368013B236024682CB10024FFF718FD29
:1045B0002046BDE8F883264B1B68002BF5D0DFF8BA
:1045C000A890244FDFF8A480D9F80030E3B90CB1EB
:1045D000FFF7D0FD204D2C6844B1204E0127FFF796
:1045E00039FF00B13760013CF9D12C601B4B1B68CF
:1045F000002BDAD04FF08052194B1A60BFF34F8F67
:10460000BFF36F8F0124D1E7D9F80C300125DC68A6
:10461000261D04F11800FFF74CFC3046FFF749FC5B
:10462000E26A3968142005FA02F300FB02800B43AA
:1046300031463B60FFF71AFC0A4BE26A1B68DB6AF3
:104640009A42C1D3054B1D60BEE700BFBC3E0020AF
:10465000B03E0020C43E0020B83E0020403F002075
:1046600004ED00E0183E0020FC3E0020243E002027
:1046700008B540B94FF080520E4B1A60BFF34F8F10
:10468000BFF36F8F08BD0C4B196851B14FF0500349
:1046900072B683F31188BFF36F8FBFF34F8F62B68B
:1046A000FEE7FFF7CFFEFFF777FDFFF767FF002874
:1046B000E0D008BD04ED00E0BC3E0020174E08B578
:1046C000174C236863B9174B1B68012BF8D94FF0BF
:1046D0008052154B1A60BFF34F8FBFF36F8FEFE718
:1046E000FFF7B0FE3568FFF749FF002DE9D0FFF76F
:1046F00051FCF368DD68281DFFF7DBFB0B4A1368EC
:10470000013B13602368013B2360FFF769FC286BC2
:10471000FFF762FB2846FFF75FFBD2E7283F002048
:10472000B43E0020243E002004ED00E0B03E002016
:10473000184B1A68184B10B512B101221A6010BD3F
:104740001A60164B1B68B3FA83F3DBB214221449C8
:10475000C3F11F035A438C58881854B94FF05003C3
:1047600072B683F31188BFF36F8FBFF34F8F62B6BA
:10477000FEE74468083264680A449442446004BF17
:1047800062684260142202FB03135B68DA68054B1F
:10479000D4E700BFBC3E0020403F0020C43E0020C4
:1047A000243E0020183E0020054B1B6833B1054B0A
:1047B0001B68002B0CBF02200020704701207047AF
:1047C000103F0020BC3E0020D0F8943210B5D0F845
:1047D00090425BB194F80002FF2807D09B68214605
:1047E00094F801229847FF2384F80032002010BD7E
:1047F0004323038000487047400000204323038088
:10480000004870478400002043230380004870471D
:10481000D40000200A23038000487047C80000200D
:1048200038B50546D0F8904201F03EFED5F89032FA
:10483000C4F80C024BB1D5F8943204F50371D4F8E6
:104840000402DB689847002038BD022038BDF8B567
:10485000D0F89062D6B1142303FB0103DD698DB15A
:10486000D0F898421C2707FB0142526CB5FBF2F4CA
:1048700002FB145434B9DC612246234601F0F8FDF2
:104880002046F8BD0020C6F81402F8BD0220F8BD8D
:104890002DE9F7430A784FF0000805460E4612F05E
:1048A0006004D0F890728DF80580ADF8068028D0AD
:1048B000202C47D1CC884B78E4B1120611D5D0F822
:1048C000942239461846D2F808902246C847F28802
:1048D0003946284600F052FC4446204603B0BDE865
:1048E000F08387F80032224687F80142394600F00B
:1048F0005AFCF1E7D0F89422184695682246A8475A
:10490000EBE74F780A2F0DD00B2F15D0D7B990F8C1
:104910007432032B14D102220DF1060100F02EFC9B
:104920003C46DAE790F87432032B09D101220DF1ED
:10493000050100F023FCD0E790F87432032BCCD0B3
:104940003146284600F0F3FB0224C6E738B504469A
:104950000025812101F040FD0121E562204601F0A2
:104960003BFDC4F858518221204601F035FDD4F8B2
:10497000903225644BB1D4F894325B689847D4F8F0
:10498000900201F077FEC4F89052002038BD037CFD
:104990002DE9F0410446CBBB4FF400730222812184
:1049A000012501F009FD4FF40073E562294602225A
:1049B000204601F001FDC4F85851012508230322C7
:1049C0008221204601F0F8FC25644FF4077001F0C5
:1049D00049FE0646C4F8900258B3D4F89432002732
:1049E0001B68984794F81080C6F81472C6F81872BD
:1049F000B8F1000F13D14FF40073D6F80422294602
:104A0000204601F043FD4046BDE8F08101254023EA
:104A10000222812101F0D0FCE5624023C6E7402359
:104A2000D6F804222946204601F030FD3846BDE87C
:104A3000F0812846BDE8F08119B1C0F89412002039
:104A4000704702207047D0F890320020C3F8081257
:104A5000C3F810227047D0F890320020C3F8041237
:104A60007047D0F8902210B582B1D2F814420123D9
:104A700074B9C2F814328121D2F81032D2F8082267
:104A800003639BB201F0F4FC204610BD022010BD70
:104A9000184610BDD0F8902210B562B1047C44B91C
:104AA0004FF40073D2F80422012101F0EFFC002042
:104AB00010BD4023F6E7022010BD08B580B1D0F844
:104AC0008C3213B10023C0F88C3209B1C0F88812BF
:104AD0000123027080F8743201F02AFC002008BD26
:104AE000022008BD19B1C0F88C12002070470220C6
:104AF000704708B501F052FC002008BD08B5D0F899
:104B00008C320BB9022008BD1B6898470028F9D1E8
:104B100008BD08B5D0F88C325B689847002008BD06
:104B200038B500F520750446284600F0ECFA01235C
:104B300094F88012C4F86C32B4F88632C4F870323B
:104B400001F01F03012B0ED007D3022B10D001F070
:104B50008001204601F04EFC03E02946204600F08B
:104B600001F9002038BD2946204600F01DFAF8E77B
:104B70002946204600F03DFAF3E770B50546164693
:104B800039BBD0F86C32032B1ED1D0F84C31D0F8A1
:104B9000502193420BD99B1A31469A42C0F84C31AE
:104BA0008CBF9AB292B200F00DFB002070BDD0F81D
:104BB0008C321B6923B190F87422032A00D19847E4
:104BC000284600F007FBF0E7052BEED101F012FCC0
:104BD000EBE7D0F88C329B692BB190F87422032A52
:104BE00001D19847E1E7022070BD70B51346044635
:104BF0000E46002947D1D0F86C22022A3CD1056A22
:104C0000426A954213D9AA1A1946026292B200F07A
:104C1000C2FA33461A461946204601F037FC94F88A
:104C200078320020012B3AD184F8780270BDC36934
:104C3000B3FBF2F502FB153565B99A420AD8D0F8F4
:104C40007022934206D22A4600F0A5FAC4F87052A8
:104C50002B46DFE7D4F88C32DB682BB194F8742252
:104C6000032A01D1204698478021204601F0C2FB4B
:104C7000204600F0BAFAD2E732F00403CFD1802107
:104C800001F0B8FBCBE7D0F88C325B6933B190F818
:104C90007422032A02D19847002070BD022070BD03
:104CA0000022402370B5044601254026114601F03C
:104CB00083FB80213346C4F84451C4F8506100227C
:104CC000204601F079FB0021D4F89032A56166629C
:104CD00084F87452C4F86C126160C4F87C1223B179
:104CE000D4F88C3220465B689847002070BD017470
:104CF0000020704790F8743280F87532042380F8F1
:104D000074320020704790F8753280F874320020B9
:104D1000704708B590F87422032A04D1D0F88C3279
:104D2000DB6903B19847002008BD002070470020D0
:104D30007047002070470122017908B580F874227D
:104D4000D0F88C2252689047002008BD10B5044668
:104D5000802101F04FFB00212046BDE8104001F00A
:104D600049BB000037B50B7804460D4603F06003DD
:104D7000202B14D0402B12D0002B40F095804B7884
:104D8000092B00F29080DFE813F0E70001018E00AC
:104D9000FA008E00820013008E00D200A000D4F82A
:104DA0008C32294620469B689847002003B030BDCE
:104DB0004B881A0A013A0E2A75D8DFE802F0242837
:104DC000357474555E747474747474740800D0F817
:104DD0008832DB690DF10601207C9847BDF806207A
:104DE00052B1EB8843B19A420146204628BF1A4689
:104DF000ADF8062000F0C2F9EB88002BD5D1204693
:104E000000F0E8F9D1E7D0F888321B68E2E7027CCD
:104E1000D0F88C3232B99B6A0DF106009847022314
:104E20004370DBE7DB6AF7E7DBB2052B3BD8DFE853
:104E300003F003070B0F1317D0F888325B68C9E73C
:104E4000D0F888329B68C5E7D0F88832DB68C1E7C4
:104E5000D0F888321B69BDE7D0F888325B69B9E7C2
:104E6000D0F888329B69B5E7037CE3B9D0F88C327F
:104E70000DF106005B6B9847B0E7037C9BB9D0F857
:104E80008C320DF106001B6B98470723C8E78B880F
:104E90004BB9CB883BB94D887F2D04D890F874323C
:104EA000E9B2032B03D12046FFF750FF7DE780F8DE
:104EB000761201F0CFFA204600F08CF91DB10223E2
:104EC00084F8743271E70123FAE78978354D0129B6
:104ED0002970E8D890F87432022B08D0032B14D034
:104EE000FFF734FF29782046FFF713FE5DE700291E
:104EF00085D001210323416080F874322046FFF7FA
:104F0000FDFD02287FF47BAFCDE731B9022341607C
:104F100080F87432FFF7FDFD71E7416801293FF425
:104F20006EAFC9B2FFF7F5FD29786160E6E7CA8880
:104F3000012AB8D190F87432002BB4D0022B03D9D7
:104F4000032BB0D1011D03E00146002341F8083FC7
:104F5000204600F013F928E790F87432013B022B49
:104F6000A1D8CB88022B9ED10123C360D0F87C321C
:104F70000BB10323C360022204F10C01E8E74B8864
:104F8000012B7FF412AFC4F87C3238E790F874320A
:104F9000013B022B87D84B88012B7FF406AF0023FF
:104FA000F1E700BF443F002038B50B7804460D46BA
:104FB00003F06003202B02D0402B00D0B3B994F84B
:104FC0007432013B022B10D82B79012B0DD8D4F869
:104FD0008C32294620469B689847EB881BB910B94C
:104FE000204600F0F7F8002038BD2046FFF7AEFE5F
:104FF000F9E738B50A7804460B4602F06002202A29
:1050000013D0402A11D06AB95D788A88012DD1B2B7
:105010001FD035D3032D05D190F87422022A26D053
:10502000032A0AD0FFF792FE05E0D4F88C22194635
:10503000204692689047002038BD5A882AB94A060F
:1050400003D0DB880BB901F0D5F9204600F0C2F897
:10505000F1E790F87422022A09D0032AE2D15B8892
:10506000002BE8D14D06F0D001F0D2F9EDE74B0668
:1050700017D001F0BFF98021204601F0BBF9DAE733
:1050800090F87432022B0ED0032BCBD112F0800F8C
:105090004FF0140301F00F0203FB020214D09269D7
:1050A000EAB92046BEE74906FBD113064FF00003DC
:1050B0004FF002024CBF00F1140100F5A0710B602B
:1050C000204600F05BF8B6E7D2F84421002AE8D089
:1050D00001F07F0503FB050505F5A07504E001F06F
:1050E0007F0505FB0335054411F07F0303D12B60D9
:1050F00002222946E4E7204601F098F908B101238D
:10510000F5E72860F4E70B7803704B784370CA78B2
:105110008B7803EB022343804A790B7903EB02235C
:105120008380CA798B7903EB0223C380704710B563
:105130000446802101F05EF900212046BDE81040C0
:1051400001F058B930B588B105462B1A15F8014B56
:10515000DBB2002CF9D1013301385B0013800B70F6
:1051600003234B70022310F8015F05B930BD5A1CB0
:10517000CD540233D2B2DBB28C54F4E71346022290
:1051800010B5C0F86C220A46C3610021036201F029
:105190006FF9002010BD08B513460A46002101F042
:1051A00067F9002008BD1346032210B5C0F86C2231
:1051B0000A46C0F848310021C0F84C3101F066F9C8
:1051C000002010BD08B513460A46002101F05EF923
:1051D000002008BD08B50423C0F86C3200231A462D
:1051E000194601F045F9002008BD08B50523C0F8AF
:1051F0006C3200231A46194601F048F9002008BD18
:105200000023C36083600374012380E806004374B5
:105210007047C26883689A4203D1037C3BB14068FF
:1052200070478FBFD01A40688018C01A7047184660
:105230007047437C93B1C3680268D154C368426825
:1052400001339342C36024BF0023C3608368C268F4
:105250009A4204BF0023437401230374704703463A
:10526000007C88B19A681968885C013259689A6034
:105270008A4224BF00229A60DA689968914204BF8A
:1052800000221A7401225A74704708B500F022FFF8
:105290000120FEF7D8FCFBE730B5074D87B00FCDF6
:1052A00001AC0FC42B68002101A82360FEF7B3FCFA
:1052B000024B186007B030BD34680008783F00200A
:1052C000374B38211A6B42F01002F0B51A638DB0DB
:1052D0001A6B0024334F012602F01002324D38467B
:1052E0000192019A1A6B42F004021A631A6B02F0DF
:1052F00004020292029A1A6B42F080021A631A6B3D
:1053000002F080020392039A1A6B42F001021A63C0
:105310001A6B02F001020492049A1A6B42F0020224
:105320001A631A6B02F002020592059A1A6B42F098
:1053300008021A6301221B6B03F008030693069B05
:10534000FBF77CFB012228464FF4C041FBF776FBBC
:10535000382307A938460793032308960A9309942C
:10536000FBF782FA4FF4C04307A928460896079333
:1053700009940A94FBF778FA48F2C10307A9284672
:10538000089407930994FBF76FFA3F2307A907488E
:10539000079308940994FBF767FA0DB0F0BD00BFBE
:1053A000003802400010024000080240000C024099
:1053B00008B516480122164BC2600360A3F1FE53E4
:1053C000A3F69843436000238360036143618361D4
:1053D000C3610362FBF774FB18B14D210D4800F067
:1053E000A1F900210948FBF735FE18B154210948FD
:1053F00000F098F900210548FBF752FE28B15B2127
:105400000448BDE8084000F08DB908BD7C3F00208D
:10541000005400406A68000808B515480122154B81
:105420001549C26080E80A0000238360036143617C
:105430008361C3610362FBF743FB18B16E210F4820
:1054400000F070F900210A48FBF704FE18B175213D
:105450000A4800F067F900210548FBF721FE28B152
:105460007C210648BDE8084000F05CB908BD00BFDB
:10547000C83F002068474020005800406A68000884
:1054800003682E4A934200B589B02BD14FF4C07304
:1054900003A92B48039312230493012305930323A9
:1054A000069304230793FBF7DFF9264B05211F2002
:1054B0001A6C42F400121A6400221B6C03F40013ED
:1054C0000193019BFBF786F81F20FBF7BBF8202018
:1054D00000220521FBF77EF82020FBF7B3F809B086
:1054E0005DF804FB184A9342F9D14FF4406303A9D5
:1054F0001348039312230493012305930323069374
:1055000004230793FBF7B0F90E4B052121201A6CF9
:1055100042F480021A6400221B6C03F4800302939D
:10552000029BFBF757F82120FBF78CF82220002282
:105530000521FBF74FF82220CFE700BF00540040C1
:105540000004024000380240005800402DE9F041BC
:105550001E4FC0B01E4DDFF87C803846FFF759FE65
:10556000064610BB1A48FFF754FE0028F5D0EB683A
:10557000A9688B4221D12A7C002AEED06C68E41AFB
:10558000002CEAD02846FFF76AFE0DF80600013627
:10559000B442F7D1A1B2684600F01CFED8F89022C0
:1055A000D2F81432002BFBD1D7E73846FFF757FE6D
:1055B00001462846FFF73DFECFE704D92846FFF70E
:1055C00028FE0446DCE76C68641AD9E71440002022
:1055D000284200207C460020304B1A6C42F080525A
:1055E00030B51A64B9B01B6C022407A803F08053CD
:1055F0000093009B2A4B1A6842F440421A601B68D1
:105600000D9403F4404311940193019B01230793EC
:105610004FF4803308934FF480030E930C230F93C1
:10562000D823109309231293FCF74AFC00B1FEE73C
:10563000FCF788FA00B1FEE74FF4A0530F25049061
:10564000072105934FF4805302A802950394069313
:10565000FCF7F8FD00B1FEE7124B25902890299049
:105660002C902D902E90339014A81493FCF7CCFE20
:10567000044600B1FEE7FCF783FE4FF47A73B0FBFB
:10568000F3F0FAF7EBFF0420FAF7FEFF2246294673
:105690004FF0FF30FAF79EFF39B030BD00380240BE
:1056A0000070004040E6200007B5FAF751FFFFF711
:1056B00093FFFFF705FE00F0D7FB00F0F7FB00F0CB
:1056C00017FC00F0C3F800F06FF900F015F900F0D6
:1056D0003FF900F029F8FFF76BFEFFF79DFE00F0A1
:1056E000E1F800F027FC074B8022074901930323D0
:1056F000064800930023FEF795FDFFF7CDFDFEF76A
:1057000085FAFEE7483F0020776800084D550008FD
:105710000268034B9A4201D1FAF726BF704700BFD7
:1057200000140040FEE7000008B50B4840220B4B78
:105730000021426003600123C16083600361416115
:1057400083610262FCF75CFA28B14B210448BDE892
:105750000840FFF7E7BF08BD3C420020001000A052
:105760007E6800080268334B9A422DE9F04186B00A
:105770005CD1314B4FF00408002402269A6B0325BC
:1057800009270DEB080142F002022C489A639B6B3B
:10579000CDF8048003F00203029603940093009B6B
:1057A00004950597FBF760F80DEB08012448CDF848
:1057B00004804FF00A080296039404950597FBF7BE
:1057C00053F84FF4F06301A91C4801930296039427
:1057D0000495CDF81480FBF747F84FF4605301A906
:1057E000184801930296039404950597FBF73CF83B
:1057F0004FF4006301A914480193029603940495A1
:105800000597FBF731F8402301A90D480193029653
:1058100003940495CDF81480FBF726F85C2022460B
:105820000521FAF7D7FE5C20FAF70CFF06B0BDE8B9
:10583000F08100BF001000A00038024000100240BC
:1058400000040240000C02400008024012484FF4DD
:10585000E062124908B5C26002224FF4827302610D
:10586000012242614FF400728261102280E80A0036
:10587000C261002307228360036243628362C262C3
:1058800003634363FDF74EF828B155210448BDE892
:105890000840FFF747BF08BD184400200030014012
:1058A0008F68000808B511484FF482734FF44072B6
:1058B0000F49C2604FF4007280E80A000023826141
:1058C0000722836003614361C361036243628362B1
:1058D00003630823C2624363FDF724F828B16D21F6
:1058E0000448BDE80840FFF71DBF08BD88420020FE
:1058F000003800408F68000812484FF4E0621249F7
:1059000008B5C26002224FF4827302610122426133
:105910004FF400728261102280E80A00C261002305
:1059200007228360036243628362C262036343634C
:10593000FCF7F8FF28B185210448BDE80840FFF7CF
:10594000F1BE08BD50430020003C00408F680008B5
:1059500012484FF4E062124908B5C26002224FF4C7
:1059600082730261012242614FF400728261182247
:1059700080E80A00C2610023072283600362436259
:105980008362C26203634363FCF7CCFF28B19D21AD
:105990000448BDE80840FFF7C5BE08BDB443002079
:1059A000003401408F68000812484FF4E062124949
:1059B00008B5C26002224FF4827302610122426183
:1059C0004FF400728261182280E80A00C26100234D
:1059D00007228360036243628362C262036343639C
:1059E000FCF7A0FF28B1B5210448BDE80840FFF747
:1059F00099BE08BDEC420020005401408F680008A9
:105A00000368724A9342F0B58BB035D1704B0025D4
:105A1000052402275A6C032605A96E4842F48052D9
:105A20005A645B6C069703F48053079508960093BD
:105A3000009B402309940593FAF716FF802305A9DC
:105A4000654805930697079508960994FAF70CFFA1
:105A5000082305A9614805930697079508960994B8
:105A6000FAF702FF23202A462146FAF7B3FD232046
:105A7000FAF7E8FD0BB0F0BD594A934228D1544BD8
:105A80000226002505241A6C032705A9554842F46F
:105A900080421A641B6C059603F4804306960795B2
:105AA0000193019B08970994FAF7DEFE4FF4005327
:105AB00005A94A4805930696079508970994FAF7A9
:105AC000D3FE24202A462146FAF784FD2420CFE77E
:105AD000454A93422AD13E4B0024032502261A6CE4
